{
  "contractName": "NFT",
  "abi": [
    {
      "inputs": [
        {
          "internalType": "string",
          "name": "name",
          "type": "string"
        },
        {
          "internalType": "string",
          "name": "symbol",
          "type": "string"
        }
      ],
      "stateMutability": "nonpayable",
      "type": "constructor"
    },
    {
      "anonymous": false,
      "inputs": [
        {
          "indexed": true,
          "internalType": "address",
          "name": "owner",
          "type": "address"
        },
        {
          "indexed": true,
          "internalType": "address",
          "name": "approved",
          "type": "address"
        },
        {
          "indexed": true,
          "internalType": "uint256",
          "name": "tokenId",
          "type": "uint256"
        }
      ],
      "name": "Approval",
      "type": "event"
    },
    {
      "anonymous": false,
      "inputs": [
        {
          "indexed": true,
          "internalType": "address",
          "name": "owner",
          "type": "address"
        },
        {
          "indexed": true,
          "internalType": "address",
          "name": "operator",
          "type": "address"
        },
        {
          "indexed": false,
          "internalType": "bool",
          "name": "approved",
          "type": "bool"
        }
      ],
      "name": "ApprovalForAll",
      "type": "event"
    },
    {
      "anonymous": false,
      "inputs": [
        {
          "indexed": true,
          "internalType": "address",
          "name": "owner",
          "type": "address"
        },
        {
          "indexed": true,
          "internalType": "uint256",
          "name": "tokenId",
          "type": "uint256"
        },
        {
          "indexed": false,
          "internalType": "string",
          "name": "name",
          "type": "string"
        },
        {
          "indexed": false,
          "internalType": "string",
          "name": "addressInfo",
          "type": "string"
        },
        {
          "indexed": false,
          "internalType": "uint256",
          "name": "number",
          "type": "uint256"
        },
        {
          "indexed": false,
          "internalType": "string",
          "name": "imageURI",
          "type": "string"
        }
      ],
      "name": "NFTMinted",
      "type": "event"
    },
    {
      "anonymous": false,
      "inputs": [
        {
          "indexed": true,
          "internalType": "address",
          "name": "previousOwner",
          "type": "address"
        },
        {
          "indexed": true,
          "internalType": "address",
          "name": "newOwner",
          "type": "address"
        }
      ],
      "name": "OwnershipTransferred",
      "type": "event"
    },
    {
      "anonymous": false,
      "inputs": [
        {
          "indexed": true,
          "internalType": "address",
          "name": "from",
          "type": "address"
        },
        {
          "indexed": true,
          "internalType": "address",
          "name": "to",
          "type": "address"
        },
        {
          "indexed": true,
          "internalType": "uint256",
          "name": "tokenId",
          "type": "uint256"
        }
      ],
      "name": "Transfer",
      "type": "event"
    },
    {
      "inputs": [
        {
          "internalType": "address",
          "name": "to",
          "type": "address"
        },
        {
          "internalType": "uint256",
          "name": "tokenId",
          "type": "uint256"
        }
      ],
      "name": "approve",
      "outputs": [],
      "stateMutability": "nonpayable",
      "type": "function"
    },
    {
      "inputs": [
        {
          "internalType": "address",
          "name": "owner",
          "type": "address"
        }
      ],
      "name": "balanceOf",
      "outputs": [
        {
          "internalType": "uint256",
          "name": "",
          "type": "uint256"
        }
      ],
      "stateMutability": "view",
      "type": "function"
    },
    {
      "inputs": [
        {
          "internalType": "uint256",
          "name": "tokenId",
          "type": "uint256"
        }
      ],
      "name": "getApproved",
      "outputs": [
        {
          "internalType": "address",
          "name": "",
          "type": "address"
        }
      ],
      "stateMutability": "view",
      "type": "function"
    },
    {
      "inputs": [
        {
          "internalType": "address",
          "name": "owner",
          "type": "address"
        },
        {
          "internalType": "address",
          "name": "operator",
          "type": "address"
        }
      ],
      "name": "isApprovedForAll",
      "outputs": [
        {
          "internalType": "bool",
          "name": "",
          "type": "bool"
        }
      ],
      "stateMutability": "view",
      "type": "function"
    },
    {
      "inputs": [],
      "name": "name",
      "outputs": [
        {
          "internalType": "string",
          "name": "",
          "type": "string"
        }
      ],
      "stateMutability": "view",
      "type": "function"
    },
    {
      "inputs": [],
      "name": "owner",
      "outputs": [
        {
          "internalType": "address",
          "name": "",
          "type": "address"
        }
      ],
      "stateMutability": "view",
      "type": "function"
    },
    {
      "inputs": [
        {
          "internalType": "uint256",
          "name": "tokenId",
          "type": "uint256"
        }
      ],
      "name": "ownerOf",
      "outputs": [
        {
          "internalType": "address",
          "name": "",
          "type": "address"
        }
      ],
      "stateMutability": "view",
      "type": "function"
    },
    {
      "inputs": [],
      "name": "renounceOwnership",
      "outputs": [],
      "stateMutability": "nonpayable",
      "type": "function"
    },
    {
      "inputs": [
        {
          "internalType": "address",
          "name": "from",
          "type": "address"
        },
        {
          "internalType": "address",
          "name": "to",
          "type": "address"
        },
        {
          "internalType": "uint256",
          "name": "tokenId",
          "type": "uint256"
        }
      ],
      "name": "safeTransferFrom",
      "outputs": [],
      "stateMutability": "nonpayable",
      "type": "function"
    },
    {
      "inputs": [
        {
          "internalType": "address",
          "name": "from",
          "type": "address"
        },
        {
          "internalType": "address",
          "name": "to",
          "type": "address"
        },
        {
          "internalType": "uint256",
          "name": "tokenId",
          "type": "uint256"
        },
        {
          "internalType": "bytes",
          "name": "data",
          "type": "bytes"
        }
      ],
      "name": "safeTransferFrom",
      "outputs": [],
      "stateMutability": "nonpayable",
      "type": "function"
    },
    {
      "inputs": [
        {
          "internalType": "address",
          "name": "operator",
          "type": "address"
        },
        {
          "internalType": "bool",
          "name": "approved",
          "type": "bool"
        }
      ],
      "name": "setApprovalForAll",
      "outputs": [],
      "stateMutability": "nonpayable",
      "type": "function"
    },
    {
      "inputs": [
        {
          "internalType": "bytes4",
          "name": "interfaceId",
          "type": "bytes4"
        }
      ],
      "name": "supportsInterface",
      "outputs": [
        {
          "internalType": "bool",
          "name": "",
          "type": "bool"
        }
      ],
      "stateMutability": "view",
      "type": "function"
    },
    {
      "inputs": [],
      "name": "symbol",
      "outputs": [
        {
          "internalType": "string",
          "name": "",
          "type": "string"
        }
      ],
      "stateMutability": "view",
      "type": "function"
    },
    {
      "inputs": [
        {
          "internalType": "uint256",
          "name": "index",
          "type": "uint256"
        }
      ],
      "name": "tokenByIndex",
      "outputs": [
        {
          "internalType": "uint256",
          "name": "",
          "type": "uint256"
        }
      ],
      "stateMutability": "view",
      "type": "function"
    },
    {
      "inputs": [
        {
          "internalType": "address",
          "name": "owner",
          "type": "address"
        },
        {
          "internalType": "uint256",
          "name": "index",
          "type": "uint256"
        }
      ],
      "name": "tokenOfOwnerByIndex",
      "outputs": [
        {
          "internalType": "uint256",
          "name": "",
          "type": "uint256"
        }
      ],
      "stateMutability": "view",
      "type": "function"
    },
    {
      "inputs": [
        {
          "internalType": "uint256",
          "name": "tokenId",
          "type": "uint256"
        }
      ],
      "name": "tokenURI",
      "outputs": [
        {
          "internalType": "string",
          "name": "",
          "type": "string"
        }
      ],
      "stateMutability": "view",
      "type": "function"
    },
    {
      "inputs": [],
      "name": "totalSupply",
      "outputs": [
        {
          "internalType": "uint256",
          "name": "",
          "type": "uint256"
        }
      ],
      "stateMutability": "view",
      "type": "function"
    },
    {
      "inputs": [
        {
          "internalType": "address",
          "name": "from",
          "type": "address"
        },
        {
          "internalType": "address",
          "name": "to",
          "type": "address"
        },
        {
          "internalType": "uint256",
          "name": "tokenId",
          "type": "uint256"
        }
      ],
      "name": "transferFrom",
      "outputs": [],
      "stateMutability": "nonpayable",
      "type": "function"
    },
    {
      "inputs": [
        {
          "internalType": "address",
          "name": "newOwner",
          "type": "address"
        }
      ],
      "name": "transferOwnership",
      "outputs": [],
      "stateMutability": "nonpayable",
      "type": "function"
    },
    {
      "inputs": [
        {
          "internalType": "address",
          "name": "to",
          "type": "address"
        },
        {
          "internalType": "uint256",
          "name": "tokenId",
          "type": "uint256"
        },
        {
          "internalType": "string",
          "name": "name",
          "type": "string"
        },
        {
          "internalType": "string",
          "name": "addressInfo",
          "type": "string"
        },
        {
          "internalType": "uint256",
          "name": "number",
          "type": "uint256"
        },
        {
          "internalType": "string",
          "name": "imageURI",
          "type": "string"
        }
      ],
      "name": "mint",
      "outputs": [],
      "stateMutability": "nonpayable",
      "type": "function"
    },
    {
      "inputs": [
        {
          "internalType": "uint256",
          "name": "tokenId",
          "type": "uint256"
        }
      ],
      "name": "getTokenData",
      "outputs": [
        {
          "internalType": "string",
          "name": "name",
          "type": "string"
        },
        {
          "internalType": "string",
          "name": "addressInfo",
          "type": "string"
        },
        {
          "internalType": "uint256",
          "name": "number",
          "type": "uint256"
        },
        {
          "internalType": "string",
          "name": "imageURI",
          "type": "string"
        }
      ],
      "stateMutability": "view",
      "type": "function"
    },
    {
      "inputs": [],
      "name": "getTotalIds",
      "outputs": [
        {
          "internalType": "uint256",
          "name": "",
          "type": "uint256"
        }
      ],
      "stateMutability": "view",
      "type": "function"
    }
  ],
  "bytecode": "0x608060405234801562000010575f80fd5b5060405162003ea538038062003ea58339818101604052810190620000369190620002d4565b8181815f90816200004891906200058e565b5080600190816200005a91906200058e565b5050506200007d620000716200008560201b60201c565b6200008c60201b60201c565b505062000672565b5f33905090565b5f600a5f9054906101000a900473ffffffffffffffffffffffffffffffffffffffff16905081600a5f6101000a81548173ffffffffffffffffffffffffffffffffffffffff021916908373ffffffffffffffffffffffffffffffffffffffff1602179055508173ffffffffffffffffffffffffffffffffffffffff168173ffffffffffffffffffffffffffffffffffffffff167f8be0079c531659141344cd1fd0a4f28419497f9722a3daafe3b4186f6b6457e060405160405180910390a35050565b5f604051905090565b5f80fd5b5f80fd5b5f80fd5b5f80fd5b5f601f19601f8301169050919050565b7f4e487b71000000000000000000000000000000000000000000000000000000005f52604160045260245ffd5b620001b08262000168565b810181811067ffffffffffffffff82111715620001d257620001d162000178565b5b80604052505050565b5f620001e66200014f565b9050620001f48282620001a5565b919050565b5f67ffffffffffffffff82111562000216576200021562000178565b5b620002218262000168565b9050602081019050919050565b5f5b838110156200024d57808201518184015260208101905062000230565b5f8484015250505050565b5f6200026e6200026884620001f9565b620001db565b9050828152602081018484840111156200028d576200028c62000164565b5b6200029a8482856200022e565b509392505050565b5f82601f830112620002b957620002b862000160565b5b8151620002cb84826020860162000258565b91505092915050565b5f8060408385031215620002ed57620002ec62000158565b5b5f83015167ffffffffffffffff8111156200030d576200030c6200015c565b5b6200031b85828601620002a2565b925050602083015167ffffffffffffffff8111156200033f576200033e6200015c565b5b6200034d85828601620002a2565b9150509250929050565b5f81519050919050565b7f4e487b71000000000000000000000000000000000000000000000000000000005f52602260045260245ffd5b5f6002820490506001821680620003a657607f821691505b602082108103620003bc57620003bb62000361565b5b50919050565b5f819050815f5260205f209050919050565b5f6020601f8301049050919050565b5f82821b905092915050565b5f60088302620004207fffffffffffffffffffffffffffffffffffffffffffffffffffffffffffffffff82620003e3565b6200042c8683620003e3565b95508019841693508086168417925050509392505050565b5f819050919050565b5f819050919050565b5f62000476620004706200046a8462000444565b6200044d565b62000444565b9050919050565b5f819050919050565b620004918362000456565b620004a9620004a0826200047d565b848454620003ef565b825550505050565b5f90565b620004bf620004b1565b620004cc81848462000486565b505050565b5b81811015620004f357620004e75f82620004b5565b600181019050620004d2565b5050565b601f82111562000542576200050c81620003c2565b6200051784620003d4565b8101602085101562000527578190505b6200053f6200053685620003d4565b830182620004d1565b50505b505050565b5f82821c905092915050565b5f620005645f198460080262000547565b1980831691505092915050565b5f6200057e838362000553565b9150826002028217905092915050565b620005998262000357565b67ffffffffffffffff811115620005b557620005b462000178565b5b620005c182546200038e565b620005ce828285620004f7565b5f60209050601f83116001811462000604575f8415620005ef578287015190505b620005fb858262000571565b8655506200066a565b601f1984166200061486620003c2565b5f5b828110156200063d5784890151825560018201915060208501945060208101905062000616565b868310156200065d578489015162000659601f89168262000553565b8355505b6001600288020188555050505b505050505050565b61382580620006805f395ff3fe608060405234801561000f575f80fd5b5060043610610140575f3560e01c806370a08231116100b6578063b09afec11161007a578063b09afec114610372578063b88d4fde146103a5578063c87b56dd146103c1578063e2b02047146103f1578063e985e9c51461040f578063f2fde38b1461043f57610140565b806370a08231146102e0578063715018a6146103105780638da5cb5b1461031a57806395d89b4114610338578063a22cb4651461035657610140565b806323b872dd1161010857806323b872dd146101fc5780632f745c591461021857806342842e0e146102485780634f6ccce7146102645780636352211e146102945780636fa9c018146102c457610140565b806301ffc9a71461014457806306fdde0314610174578063081812fc14610192578063095ea7b3146101c257806318160ddd146101de575b5f80fd5b61015e6004803603810190610159919061238f565b61045b565b60405161016b91906123d4565b60405180910390f35b61017c6104d4565b6040516101899190612477565b60405180910390f35b6101ac60048036038101906101a791906124ca565b610563565b6040516101b99190612534565b60405180910390f35b6101dc60048036038101906101d79190612577565b6105a5565b005b6101e66106bb565b6040516101f391906125c4565b60405180910390f35b610216600480360381019061021191906125dd565b6106c7565b005b610232600480360381019061022d9190612577565b610727565b60405161023f91906125c4565b60405180910390f35b610262600480360381019061025d91906125dd565b6107c7565b005b61027e600480360381019061027991906124ca565b6107e6565b60405161028b91906125c4565b60405180910390f35b6102ae60048036038101906102a991906124ca565b610854565b6040516102bb9190612534565b60405180910390f35b6102de60048036038101906102d99190612759565b6108d8565b005b6102fa60048036038101906102f59190612836565b610954565b60405161030791906125c4565b60405180910390f35b610318610a08565b005b610322610a1b565b60405161032f9190612534565b60405180910390f35b610340610a43565b60405161034d9190612477565b60405180910390f35b610370600480360381019061036b919061288b565b610ad3565b005b61038c600480360381019061038791906124ca565b610ae9565b60405161039c94939291906128c9565b60405180910390f35b6103bf60048036038101906103ba91906129bf565b610d32565b005b6103db60048036038101906103d691906124ca565b610d94565b6040516103e89190612477565b60405180910390f35b6103f9610df9565b60405161040691906125c4565b60405180910390f35b61042960048036038101906104249190612a3f565b610e07565b60405161043691906123d4565b60405180910390f35b61045960048036038101906104549190612836565b610e95565b005b5f7f780e9d63000000000000000000000000000000000000000000000000000000007bffffffffffffffffffffffffffffffffffffffffffffffffffffffff1916827bffffffffffffffffffffffffffffffffffffffffffffffffffffffff191614806104cd57506104cc82610f17565b5b9050919050565b60605f80546104e290612aaa565b80601f016020809104026020016040519081016040528092919081815260200182805461050e90612aaa565b80156105595780601f1061053057610100808354040283529160200191610559565b820191905f5260205f20905b81548152906001019060200180831161053c57829003601f168201915b5050505050905090565b5f61056d82610ff8565b60045f8381526020019081526020015f205f9054906101000a900473ffffffffffffffffffffffffffffffffffffffff169050919050565b5f6105af82610854565b90508073ffffffffffffffffffffffffffffffffffffffff168373ffffffffffffffffffffffffffffffffffffffff160361061f576040517f08c379a000000000000000000000000000000000000000000000000000000000815260040161061690612b4a565b60405180910390fd5b8073ffffffffffffffffffffffffffffffffffffffff1661063e611043565b73ffffffffffffffffffffffffffffffffffffffff16148061066d575061066c81610667611043565b610e07565b5b6106ac576040517f08c379a00000000000000000000000000000000000000000000000000000000081526004016106a390612bd8565b60405180910390fd5b6106b6838361104a565b505050565b5f600880549050905090565b6106d86106d2611043565b82611100565b610717576040517f08c379a000000000000000000000000000000000000000000000000000000000815260040161070e90612c66565b60405180910390fd5b610722838383611194565b505050565b5f61073183610954565b8210610772576040517f08c379a000000000000000000000000000000000000000000000000000000000815260040161076990612cf4565b60405180910390fd5b60065f8473ffffffffffffffffffffffffffffffffffffffff1673ffffffffffffffffffffffffffffffffffffffff1681526020019081526020015f205f8381526020019081526020015f2054905092915050565b6107e183838360405180602001604052805f815250610d32565b505050565b5f6107ef6106bb565b8210610830576040517f08c379a000000000000000000000000000000000000000000000000000000000815260040161082790612d82565b60405180910390fd5b6008828154811061084457610843612da0565b5b905f5260205f2001549050919050565b5f8061085f83611480565b90505f73ffffffffffffffffffffffffffffffffffffffff168173ffffffffffffffffffffffffffffffffffffffff16036108cf576040517f08c379a00000000000000000000000000000000000000000000000000000000081526004016108c690612e17565b60405180910390fd5b80915050919050565b6108e06114b9565b6108ea8686611537565b6108f7858585858561174a565b848673ffffffffffffffffffffffffffffffffffffffff167f233ed145f0f0257d8c3f3eaf3cd346a9a2bec364010970bb2c2642d65cc482898686868660405161094494939291906128c9565b60405180910390a3505050505050565b5f8073ffffffffffffffffffffffffffffffffffffffff168273ffffffffffffffffffffffffffffffffffffffff16036109c3576040517f08c379a00000000000000000000000000000000000000000000000000000000081526004016109ba90612ea5565b60405180910390fd5b60035f8373ffffffffffffffffffffffffffffffffffffffff1673ffffffffffffffffffffffffffffffffffffffff1681526020019081526020015f20549050919050565b610a106114b9565b610a195f6117ec565b565b5f600a5f9054906101000a900473ffffffffffffffffffffffffffffffffffffffff16905090565b606060018054610a5290612aaa565b80601f0160208091040260200160405190810160405280929190818152602001828054610a7e90612aaa565b8015610ac95780601f10610aa057610100808354040283529160200191610ac9565b820191905f5260205f20905b815481529060010190602001808311610aac57829003601f168201915b5050505050905090565b610ae5610ade611043565b83836118af565b5050565b6060805f6060610af885611a16565b610b37576040517f08c379a0000000000000000000000000000000000000000000000000000000008152600401610b2e90612f0d565b60405180910390fd5b5f600b5f8781526020019081526020015f206040518060800160405290815f82018054610b6390612aaa565b80601f0160208091040260200160405190810160405280929190818152602001828054610b8f90612aaa565b8015610bda5780601f10610bb157610100808354040283529160200191610bda565b820191905f5260205f20905b815481529060010190602001808311610bbd57829003601f168201915b50505050508152602001600182018054610bf390612aaa565b80601f0160208091040260200160405190810160405280929190818152602001828054610c1f90612aaa565b8015610c6a5780601f10610c4157610100808354040283529160200191610c6a565b820191905f5260205f20905b815481529060010190602001808311610c4d57829003601f168201915b5050505050815260200160028201548152602001600382018054610c8d90612aaa565b80601f0160208091040260200160405190810160405280929190818152602001828054610cb990612aaa565b8015610d045780601f10610cdb57610100808354040283529160200191610d04565b820191905f5260205f20905b815481529060010190602001808311610ce757829003601f168201915b5050505050815250509050805f01518160200151826040015183606001519450945094509450509193509193565b610d43610d3d611043565b83611100565b610d82576040517f08c379a0000000000000000000000000000000000000000000000000000000008152600401610d7990612c66565b60405180910390fd5b610d8e84848484611a56565b50505050565b6060610d9f82610ff8565b5f610da8611ab2565b90505f815111610dc65760405180602001604052805f815250610df1565b80610dd084611ac8565b604051602001610de1929190612f65565b6040516020818303038152906040525b915050919050565b5f610e026106bb565b905090565b5f60055f8473ffffffffffffffffffffffffffffffffffffffff1673ffffffffffffffffffffffffffffffffffffffff1681526020019081526020015f205f8373ffffffffffffffffffffffffffffffffffffffff1673ffffffffffffffffffffffffffffffffffffffff1681526020019081526020015f205f9054906101000a900460ff16905092915050565b610e9d6114b9565b5f73ffffffffffffffffffffffffffffffffffffffff168173ffffffffffffffffffffffffffffffffffffffff1603610f0b576040517f08c379a0000000000000000000000000000000000000000000000000000000008152600401610f0290612ff8565b60405180910390fd5b610f14816117ec565b50565b5f7f80ac58cd000000000000000000000000000000000000000000000000000000007bffffffffffffffffffffffffffffffffffffffffffffffffffffffff1916827bffffffffffffffffffffffffffffffffffffffffffffffffffffffff19161480610fe157507f5b5e139f000000000000000000000000000000000000000000000000000000007bffffffffffffffffffffffffffffffffffffffffffffffffffffffff1916827bffffffffffffffffffffffffffffffffffffffffffffffffffffffff1916145b80610ff15750610ff082611b92565b5b9050919050565b61100181611a16565b611040576040517f08c379a000000000000000000000000000000000000000000000000000000000815260040161103790612e17565b60405180910390fd5b50565b5f33905090565b8160045f8381526020019081526020015f205f6101000a81548173ffffffffffffffffffffffffffffffffffffffff021916908373ffffffffffffffffffffffffffffffffffffffff160217905550808273ffffffffffffffffffffffffffffffffffffffff166110ba83610854565b73ffffffffffffffffffffffffffffffffffffffff167f8c5be1e5ebec7d5bd14f71427d1e84f3dd0314c0f7b2291e5b200ac8c7c3b92560405160405180910390a45050565b5f8061110b83610854565b90508073ffffffffffffffffffffffffffffffffffffffff168473ffffffffffffffffffffffffffffffffffffffff16148061114d575061114c8185610e07565b5b8061118b57508373ffffffffffffffffffffffffffffffffffffffff1661117384610563565b73ffffffffffffffffffffffffffffffffffffffff16145b91505092915050565b8273ffffffffffffffffffffffffffffffffffffffff166111b482610854565b73ffffffffffffffffffffffffffffffffffffffff161461120a576040517f08c379a000000000000000000000000000000000000000000000000000000000815260040161120190613086565b60405180910390fd5b5f73ffffffffffffffffffffffffffffffffffffffff168273ffffffffffffffffffffffffffffffffffffffff1603611278576040517f08c379a000000000000000000000000000000000000000000000000000000000815260040161126f90613114565b60405180910390fd5b6112858383836001611bfb565b8273ffffffffffffffffffffffffffffffffffffffff166112a582610854565b73ffffffffffffffffffffffffffffffffffffffff16146112fb576040517f08c379a00000000000000000000000000000000000000000000000000000000081526004016112f290613086565b60405180910390fd5b60045f8281526020019081526020015f205f6101000a81549073ffffffffffffffffffffffffffffffffffffffff0219169055600160035f8573ffffffffffffffffffffffffffffffffffffffff1673ffffffffffffffffffffffffffffffffffffffff1681526020019081526020015f205f8282540392505081905550600160035f8473ffffffffffffffffffffffffffffffffffffffff1673ffffffffffffffffffffffffffffffffffffffff1681526020019081526020015f205f82825401925050819055508160025f8381526020019081526020015f205f6101000a81548173ffffffffffffffffffffffffffffffffffffffff021916908373ffffffffffffffffffffffffffffffffffffffff160217905550808273ffffffffffffffffffffffffffffffffffffffff168473ffffffffffffffffffffffffffffffffffffffff167fddf252ad1be2c89b69c2b068fc378daa952ba7f163c4a11628f55a4df523b3ef60405160405180910390a461147b8383836001611d56565b505050565b5f60025f8381526020019081526020015f205f9054906101000a900473ffffffffffffffffffffffffffffffffffffffff169050919050565b6114c1611043565b73ffffffffffffffffffffffffffffffffffffffff166114df610a1b565b73ffffffffffffffffffffffffffffffffffffffff1614611535576040517f08c379a000000000000000000000000000000000000000000000000000000000815260040161152c9061317c565b60405180910390fd5b565b5f73ffffffffffffffffffffffffffffffffffffffff168273ffffffffffffffffffffffffffffffffffffffff16036115a5576040517f08c379a000000000000000000000000000000000000000000000000000000000815260040161159c906131e4565b60405180910390fd5b6115ae81611a16565b156115ee576040517f08c379a00000000000000000000000000000000000000000000000000000000081526004016115e59061324c565b60405180910390fd5b6115fb5f83836001611bfb565b61160481611a16565b15611644576040517f08c379a000000000000000000000000000000000000000000000000000000000815260040161163b9061324c565b60405180910390fd5b600160035f8473ffffffffffffffffffffffffffffffffffffffff1673ffffffffffffffffffffffffffffffffffffffff1681526020019081526020015f205f82825401925050819055508160025f8381526020019081526020015f205f6101000a81548173ffffffffffffffffffffffffffffffffffffffff021916908373ffffffffffffffffffffffffffffffffffffffff160217905550808273ffffffffffffffffffffffffffffffffffffffff165f73ffffffffffffffffffffffffffffffffffffffff167fddf252ad1be2c89b69c2b068fc378daa952ba7f163c4a11628f55a4df523b3ef60405160405180910390a46117465f83836001611d56565b5050565b61175385611a16565b611792576040517f08c379a000000000000000000000000000000000000000000000000000000000815260040161178990612f0d565b60405180910390fd5b5f600b5f8781526020019081526020015f20905084815f0190816117b69190613407565b50838160010190816117c89190613407565b50828160020181905550818160030190816117e39190613407565b50505050505050565b5f600a5f9054906101000a900473ffffffffffffffffffffffffffffffffffffffff16905081600a5f6101000a81548173ffffffffffffffffffffffffffffffffffffffff021916908373ffffffffffffffffffffffffffffffffffffffff1602179055508173ffffffffffffffffffffffffffffffffffffffff168173ffffffffffffffffffffffffffffffffffffffff167f8be0079c531659141344cd1fd0a4f28419497f9722a3daafe3b4186f6b6457e060405160405180910390a35050565b8173ffffffffffffffffffffffffffffffffffffffff168373ffffffffffffffffffffffffffffffffffffffff160361191d576040517f08c379a000000000000000000000000000000000000000000000000000000000815260040161191490613520565b60405180910390fd5b8060055f8573ffffffffffffffffffffffffffffffffffffffff1673ffffffffffffffffffffffffffffffffffffffff1681526020019081526020015f205f8473ffffffffffffffffffffffffffffffffffffffff1673ffffffffffffffffffffffffffffffffffffffff1681526020019081526020015f205f6101000a81548160ff0219169083151502179055508173ffffffffffffffffffffffffffffffffffffffff168373ffffffffffffffffffffffffffffffffffffffff167f17307eab39ab6107e8899845ad3d59bd9653f200f220920489ca2b5937696c3183604051611a0991906123d4565b60405180910390a3505050565b5f8073ffffffffffffffffffffffffffffffffffffffff16611a3783611480565b73ffffffffffffffffffffffffffffffffffffffff1614159050919050565b611a61848484611194565b611a6d84848484611d5c565b611aac576040517f08c379a0000000000000000000000000000000000000000000000000000000008152600401611aa3906135ae565b60405180910390fd5b50505050565b606060405180602001604052805f815250905090565b60605f6001611ad684611ede565b0190505f8167ffffffffffffffff811115611af457611af3612635565b5b6040519080825280601f01601f191660200182016040528015611b265781602001600182028036833780820191505090505b5090505f82602001820190505b600115611b87578080600190039150507f3031323334353637383961626364656600000000000000000000000000000000600a86061a8153600a8581611b7c57611b7b6135cc565b5b0494505f8503611b33575b819350505050919050565b5f7f01ffc9a7000000000000000000000000000000000000000000000000000000007bffffffffffffffffffffffffffffffffffffffffffffffffffffffff1916827bffffffffffffffffffffffffffffffffffffffffffffffffffffffff1916149050919050565b611c078484848461202f565b6001811115611c4b576040517f08c379a0000000000000000000000000000000000000000000000000000000008152600401611c4290613669565b60405180910390fd5b5f8290505f73ffffffffffffffffffffffffffffffffffffffff168573ffffffffffffffffffffffffffffffffffffffff1603611c9057611c8b81612035565b611ccf565b8373ffffffffffffffffffffffffffffffffffffffff168573ffffffffffffffffffffffffffffffffffffffff1614611cce57611ccd8582612079565b5b5b5f73ffffffffffffffffffffffffffffffffffffffff168473ffffffffffffffffffffffffffffffffffffffff1603611d1057611d0b816121cf565b611d4f565b8473ffffffffffffffffffffffffffffffffffffffff168473ffffffffffffffffffffffffffffffffffffffff1614611d4e57611d4d848261228f565b5b5b5050505050565b50505050565b5f611d7c8473ffffffffffffffffffffffffffffffffffffffff16612307565b15611ed1578373ffffffffffffffffffffffffffffffffffffffff1663150b7a02611da5611043565b8786866040518563ffffffff1660e01b8152600401611dc794939291906136d9565b6020604051808303815f875af1925050508015611e0257506040513d601f19601f82011682018060405250810190611dff9190613737565b60015b611e81573d805f8114611e30576040519150601f19603f3d011682016040523d82523d5f602084013e611e35565b606091505b505f815103611e79576040517f08c379a0000000000000000000000000000000000000000000000000000000008152600401611e70906135ae565b60405180910390fd5b805181602001fd5b63150b7a0260e01b7bffffffffffffffffffffffffffffffffffffffffffffffffffffffff1916817bffffffffffffffffffffffffffffffffffffffffffffffffffffffff191614915050611ed6565b600190505b949350505050565b5f805f90507a184f03e93ff9f4daa797ed6e38ed64bf6a1f0100000000000000008310611f3a577a184f03e93ff9f4daa797ed6e38ed64bf6a1f0100000000000000008381611f3057611f2f6135cc565b5b0492506040810190505b6d04ee2d6d415b85acef81000000008310611f77576d04ee2d6d415b85acef81000000008381611f6d57611f6c6135cc565b5b0492506020810190505b662386f26fc100008310611fa657662386f26fc100008381611f9c57611f9b6135cc565b5b0492506010810190505b6305f5e1008310611fcf576305f5e1008381611fc557611fc46135cc565b5b0492506008810190505b6127108310611ff4576127108381611fea57611fe96135cc565b5b0492506004810190505b60648310612017576064838161200d5761200c6135cc565b5b0492506002810190505b600a8310612026576001810190505b80915050919050565b50505050565b60088054905060095f8381526020019081526020015f2081905550600881908060018154018082558091505060019003905f5260205f20015f909190919091505550565b5f600161208584610954565b61208f919061378f565b90505f60075f8481526020019081526020015f20549050818114612166575f60065f8673ffffffffffffffffffffffffffffffffffffffff1673ffffffffffffffffffffffffffffffffffffffff1681526020019081526020015f205f8481526020019081526020015f205490508060065f8773ffffffffffffffffffffffffffffffffffffffff1673ffffffffffffffffffffffffffffffffffffffff1681526020019081526020015f205f8481526020019081526020015f20819055508160075f8381526020019081526020015f2081905550505b60075f8481526020019081526020015f205f905560065f8573ffffffffffffffffffffffffffffffffffffffff1673ffffffffffffffffffffffffffffffffffffffff1681526020019081526020015f205f8381526020019081526020015f205f905550505050565b5f60016008805490506121e2919061378f565b90505f60095f8481526020019081526020015f205490505f6008838154811061220e5761220d612da0565b5b905f5260205f2001549050806008838154811061222e5761222d612da0565b5b905f5260205f2001819055508160095f8381526020019081526020015f208190555060095f8581526020019081526020015f205f90556008805480612276576122756137c2565b5b600190038181905f5260205f20015f9055905550505050565b5f61229983610954565b90508160065f8573ffffffffffffffffffffffffffffffffffffffff1673ffffffffffffffffffffffffffffffffffffffff1681526020019081526020015f205f8381526020019081526020015f20819055508060075f8481526020019081526020015f2081905550505050565b5f808273ffffffffffffffffffffffffffffffffffffffff163b119050919050565b5f604051905090565b5f80fd5b5f80fd5b5f7fffffffff0000000000000000000000000000000000000000000000000000000082169050919050565b61236e8161233a565b8114612378575f80fd5b50565b5f8135905061238981612365565b92915050565b5f602082840312156123a4576123a3612332565b5b5f6123b18482850161237b565b91505092915050565b5f8115159050919050565b6123ce816123ba565b82525050565b5f6020820190506123e75f8301846123c5565b92915050565b5f81519050919050565b5f82825260208201905092915050565b5f5b83811015612424578082015181840152602081019050612409565b5f8484015250505050565b5f601f19601f8301169050919050565b5f612449826123ed565b61245381856123f7565b9350612463818560208601612407565b61246c8161242f565b840191505092915050565b5f6020820190508181035f83015261248f818461243f565b905092915050565b5f819050919050565b6124a981612497565b81146124b3575f80fd5b50565b5f813590506124c4816124a0565b92915050565b5f602082840312156124df576124de612332565b5b5f6124ec848285016124b6565b91505092915050565b5f73ffffffffffffffffffffffffffffffffffffffff82169050919050565b5f61251e826124f5565b9050919050565b61252e81612514565b82525050565b5f6020820190506125475f830184612525565b92915050565b61255681612514565b8114612560575f80fd5b50565b5f813590506125718161254d565b92915050565b5f806040838503121561258d5761258c612332565b5b5f61259a85828601612563565b92505060206125ab858286016124b6565b9150509250929050565b6125be81612497565b82525050565b5f6020820190506125d75f8301846125b5565b92915050565b5f805f606084860312156125f4576125f3612332565b5b5f61260186828701612563565b935050602061261286828701612563565b9250506040612623868287016124b6565b9150509250925092565b5f80fd5b5f80fd5b7f4e487b71000000000000000000000000000000000000000000000000000000005f52604160045260245ffd5b61266b8261242f565b810181811067ffffffffffffffff8211171561268a57612689612635565b5b80604052505050565b5f61269c612329565b90506126a88282612662565b919050565b5f67ffffffffffffffff8211156126c7576126c6612635565b5b6126d08261242f565b9050602081019050919050565b828183375f83830152505050565b5f6126fd6126f8846126ad565b612693565b90508281526020810184848401111561271957612718612631565b5b6127248482856126dd565b509392505050565b5f82601f8301126127405761273f61262d565b5b81356127508482602086016126eb565b91505092915050565b5f805f805f8060c0878903121561277357612772612332565b5b5f61278089828a01612563565b965050602061279189828a016124b6565b955050604087013567ffffffffffffffff8111156127b2576127b1612336565b5b6127be89828a0161272c565b945050606087013567ffffffffffffffff8111156127df576127de612336565b5b6127eb89828a0161272c565b93505060806127fc89828a016124b6565b92505060a087013567ffffffffffffffff81111561281d5761281c612336565b5b61282989828a0161272c565b9150509295509295509295565b5f6020828403121561284b5761284a612332565b5b5f61285884828501612563565b91505092915050565b61286a816123ba565b8114612874575f80fd5b50565b5f8135905061288581612861565b92915050565b5f80604083850312156128a1576128a0612332565b5b5f6128ae85828601612563565b92505060206128bf85828601612877565b9150509250929050565b5f6080820190508181035f8301526128e1818761243f565b905081810360208301526128f5818661243f565b905061290460408301856125b5565b8181036060830152612916818461243f565b905095945050505050565b5f67ffffffffffffffff82111561293b5761293a612635565b5b6129448261242f565b9050602081019050919050565b5f61296361295e84612921565b612693565b90508281526020810184848401111561297f5761297e612631565b5b61298a8482856126dd565b509392505050565b5f82601f8301126129a6576129a561262d565b5b81356129b6848260208601612951565b91505092915050565b5f805f80608085870312156129d7576129d6612332565b5b5f6129e487828801612563565b94505060206129f587828801612563565b9350506040612a06878288016124b6565b925050606085013567ffffffffffffffff811115612a2757612a26612336565b5b612a3387828801612992565b91505092959194509250565b5f8060408385031215612a5557612a54612332565b5b5f612a6285828601612563565b9250506020612a7385828601612563565b9150509250929050565b7f4e487b71000000000000000000000000000000000000000000000000000000005f52602260045260245ffd5b5f6002820490506001821680612ac157607f821691505b602082108103612ad457612ad3612a7d565b5b50919050565b7f4552433732313a20617070726f76616c20746f2063757272656e74206f776e655f8201527f7200000000000000000000000000000000000000000000000000000000000000602082015250565b5f612b346021836123f7565b9150612b3f82612ada565b604082019050919050565b5f6020820190508181035f830152612b6181612b28565b9050919050565b7f4552433732313a20617070726f76652063616c6c6572206973206e6f7420746f5f8201527f6b656e206f776e6572206f7220617070726f76656420666f7220616c6c000000602082015250565b5f612bc2603d836123f7565b9150612bcd82612b68565b604082019050919050565b5f6020820190508181035f830152612bef81612bb6565b9050919050565b7f4552433732313a2063616c6c6572206973206e6f7420746f6b656e206f776e655f8201527f72206f7220617070726f76656400000000000000000000000000000000000000602082015250565b5f612c50602d836123f7565b9150612c5b82612bf6565b604082019050919050565b5f6020820190508181035f830152612c7d81612c44565b9050919050565b7f455243373231456e756d657261626c653a206f776e657220696e646578206f755f8201527f74206f6620626f756e6473000000000000000000000000000000000000000000602082015250565b5f612cde602b836123f7565b9150612ce982612c84565b604082019050919050565b5f6020820190508181035f830152612d0b81612cd2565b9050919050565b7f455243373231456e756d657261626c653a20676c6f62616c20696e646578206f5f8201527f7574206f6620626f756e64730000000000000000000000000000000000000000602082015250565b5f612d6c602c836123f7565b9150612d7782612d12565b604082019050919050565b5f6020820190508181035f830152612d9981612d60565b9050919050565b7f4e487b71000000000000000000000000000000000000000000000000000000005f52603260045260245ffd5b7f4552433732313a20696e76616c696420746f6b656e20494400000000000000005f82015250565b5f612e016018836123f7565b9150612e0c82612dcd565b602082019050919050565b5f6020820190508181035f830152612e2e81612df5565b9050919050565b7f4552433732313a2061646472657373207a65726f206973206e6f7420612076615f8201527f6c6964206f776e65720000000000000000000000000000000000000000000000602082015250565b5f612e8f6029836123f7565b9150612e9a82612e35565b604082019050919050565b5f6020820190508181035f830152612ebc81612e83565b9050919050565b7f546f6b656e20646f6573206e6f742065786973740000000000000000000000005f82015250565b5f612ef76014836123f7565b9150612f0282612ec3565b602082019050919050565b5f6020820190508181035f830152612f2481612eeb565b9050919050565b5f81905092915050565b5f612f3f826123ed565b612f498185612f2b565b9350612f59818560208601612407565b80840191505092915050565b5f612f708285612f35565b9150612f7c8284612f35565b91508190509392505050565b7f4f776e61626c653a206e6577206f776e657220697320746865207a65726f20615f8201527f6464726573730000000000000000000000000000000000000000000000000000602082015250565b5f612fe26026836123f7565b9150612fed82612f88565b604082019050919050565b5f6020820190508181035f83015261300f81612fd6565b9050919050565b7f4552433732313a207472616e736665722066726f6d20696e636f7272656374205f8201527f6f776e6572000000000000000000000000000000000000000000000000000000602082015250565b5f6130706025836123f7565b915061307b82613016565b604082019050919050565b5f6020820190508181035f83015261309d81613064565b9050919050565b7f4552433732313a207472616e7366657220746f20746865207a65726f206164645f8201527f7265737300000000000000000000000000000000000000000000000000000000602082015250565b5f6130fe6024836123f7565b9150613109826130a4565b604082019050919050565b5f6020820190508181035f83015261312b816130f2565b9050919050565b7f4f776e61626c653a2063616c6c6572206973206e6f7420746865206f776e65725f82015250565b5f6131666020836123f7565b915061317182613132565b602082019050919050565b5f6020820190508181035f8301526131938161315a565b9050919050565b7f4552433732313a206d696e7420746f20746865207a65726f20616464726573735f82015250565b5f6131ce6020836123f7565b91506131d98261319a565b602082019050919050565b5f6020820190508181035f8301526131fb816131c2565b9050919050565b7f4552433732313a20746f6b656e20616c7265616479206d696e746564000000005f82015250565b5f613236601c836123f7565b915061324182613202565b602082019050919050565b5f6020820190508181035f8301526132638161322a565b9050919050565b5f819050815f5260205f209050919050565b5f6020601f8301049050919050565b5f82821b905092915050565b5f600883026132c67fffffffffffffffffffffffffffffffffffffffffffffffffffffffffffffffff8261328b565b6132d0868361328b565b95508019841693508086168417925050509392505050565b5f819050919050565b5f61330b61330661330184612497565b6132e8565b612497565b9050919050565b5f819050919050565b613324836132f1565b61333861333082613312565b848454613297565b825550505050565b5f90565b61334c613340565b61335781848461331b565b505050565b5b8181101561337a5761336f5f82613344565b60018101905061335d565b5050565b601f8211156133bf576133908161326a565b6133998461327c565b810160208510156133a8578190505b6133bc6133b48561327c565b83018261335c565b50505b505050565b5f82821c905092915050565b5f6133df5f19846008026133c4565b1980831691505092915050565b5f6133f783836133d0565b9150826002028217905092915050565b613410826123ed565b67ffffffffffffffff81111561342957613428612635565b5b6134338254612aaa565b61343e82828561337e565b5f60209050601f83116001811461346f575f841561345d578287015190505b61346785826133ec565b8655506134ce565b601f19841661347d8661326a565b5f5b828110156134a45784890151825560018201915060208501945060208101905061347f565b868310156134c157848901516134bd601f8916826133d0565b8355505b6001600288020188555050505b505050505050565b7f4552433732313a20617070726f766520746f2063616c6c6572000000000000005f82015250565b5f61350a6019836123f7565b9150613515826134d6565b602082019050919050565b5f6020820190508181035f830152613537816134fe565b9050919050565b7f4552433732313a207472616e7366657220746f206e6f6e2045524337323152655f8201527f63656976657220696d706c656d656e7465720000000000000000000000000000602082015250565b5f6135986032836123f7565b91506135a38261353e565b604082019050919050565b5f6020820190508181035f8301526135c58161358c565b9050919050565b7f4e487b71000000000000000000000000000000000000000000000000000000005f52601260045260245ffd5b7f455243373231456e756d657261626c653a20636f6e73656375746976652074725f8201527f616e7366657273206e6f7420737570706f727465640000000000000000000000602082015250565b5f6136536035836123f7565b915061365e826135f9565b604082019050919050565b5f6020820190508181035f83015261368081613647565b9050919050565b5f81519050919050565b5f82825260208201905092915050565b5f6136ab82613687565b6136b58185613691565b93506136c5818560208601612407565b6136ce8161242f565b840191505092915050565b5f6080820190506136ec5f830187612525565b6136f96020830186612525565b61370660408301856125b5565b818103606083015261371881846136a1565b905095945050505050565b5f8151905061373181612365565b92915050565b5f6020828403121561374c5761374b612332565b5b5f61375984828501613723565b91505092915050565b7f4e487b71000000000000000000000000000000000000000000000000000000005f52601160045260245ffd5b5f61379982612497565b91506137a483612497565b92508282039050818111156137bc576137bb613762565b5b92915050565b7f4e487b71000000000000000000000000000000000000000000000000000000005f52603160045260245ffdfea2646970667358221220dec5b5507719dede97150a276efb28591a46b3beb7c658ff99683bd948125c8a64736f6c63430008150033",
  "immutableReferences": {},
  "source": "// SPDX-License-Identifier: MIT\r\npragma solidity ^0.8.0;\r\n\r\nimport \"@openzeppelin/contracts/token/ERC721/extensions/ERC721Enumerable.sol\";\r\nimport \"@openzeppelin/contracts/access/Ownable.sol\";\r\n\r\ncontract NFT is ERC721Enumerable, Ownable {\r\n    struct TokenData {\r\n        string name;\r\n        string addressInfo;\r\n        uint256 number;\r\n        string imageURI; // URI to the image (can be IPFS, HTTP, or any other protocol)\r\n    }\r\n\r\n    // Mapping from token ID to additional token data\r\n    mapping(uint256 => TokenData) private _tokenData;\r\n\r\n    constructor(string memory name, string memory symbol) ERC721(name, symbol) {}\r\n\r\n    event NFTMinted(\r\n        address indexed owner,\r\n        uint256 indexed tokenId,\r\n        string name,\r\n        string addressInfo,\r\n        uint256 number,\r\n        string imageURI\r\n    );\r\n\r\n    function mint(\r\n        address to,\r\n        uint256 tokenId,\r\n        string memory name,\r\n        string memory addressInfo,\r\n        uint256 number,\r\n        string memory imageURI\r\n    ) public onlyOwner {\r\n        _mint(to, tokenId);\r\n        _setTokenData(tokenId, name, addressInfo, number, imageURI);\r\n        emit NFTMinted(to, tokenId, name, addressInfo, number, imageURI);\r\n    }\r\n\r\n    function getTokenData(uint256 tokenId)\r\n        public\r\n        view\r\n        returns (\r\n            string memory name,\r\n            string memory addressInfo,\r\n            uint256 number,\r\n            string memory imageURI\r\n        )\r\n    {\r\n        require(_exists(tokenId), \"Token does not exist\");\r\n        TokenData memory data = _tokenData[tokenId];\r\n        return (data.name, data.addressInfo, data.number, data.imageURI);\r\n    }\r\n\r\n    function _setTokenData(\r\n        uint256 tokenId,\r\n        string memory name,\r\n        string memory addressInfo,\r\n        uint256 number,\r\n        string memory imageURI\r\n    ) internal {\r\n        require(_exists(tokenId), \"Token does not exist\");\r\n        TokenData storage data = _tokenData[tokenId];\r\n        data.name = name;\r\n        data.addressInfo = addressInfo;\r\n        data.number = number;\r\n        data.imageURI = imageURI;\r\n    }\r\n    function getTotalIds() public view returns (uint256) {\r\n        return totalSupply();\r\n    }\r\n}\r\n",
  "sourcePath": "C:\\Users\\PC\\Desktop\\Summer2023\\stage\\projet\\nfttest9\\contracts\\NFT.sol",
  "compiler": {
    "name": "solc",
    "version": "0.8.21+commit.d9974bed.Emscripten.clang"
  },
  "schemaVersion": "3.4.16",
  "updatedAt": "2023-10-26T14:03:13.490Z",
  "devdoc": {
    "events": {
      "Approval(address,address,uint256)": {
        "details": "Emitted when `owner` enables `approved` to manage the `tokenId` token."
      },
      "ApprovalForAll(address,address,bool)": {
        "details": "Emitted when `owner` enables or disables (`approved`) `operator` to manage all of its assets."
      },
      "Transfer(address,address,uint256)": {
        "details": "Emitted when `tokenId` token is transferred from `from` to `to`."
      }
    },
    "kind": "dev",
    "methods": {
      "approve(address,uint256)": {
        "details": "See {IERC721-approve}."
      },
      "balanceOf(address)": {
        "details": "See {IERC721-balanceOf}."
      },
      "getApproved(uint256)": {
        "details": "See {IERC721-getApproved}."
      },
      "isApprovedForAll(address,address)": {
        "details": "See {IERC721-isApprovedForAll}."
      },
      "name()": {
        "details": "See {IERC721Metadata-name}."
      },
      "owner()": {
        "details": "Returns the address of the current owner."
      },
      "ownerOf(uint256)": {
        "details": "See {IERC721-ownerOf}."
      },
      "renounceOwnership()": {
        "details": "Leaves the contract without owner. It will not be possible to call `onlyOwner` functions. Can only be called by the current owner. NOTE: Renouncing ownership will leave the contract without an owner, thereby disabling any functionality that is only available to the owner."
      },
      "safeTransferFrom(address,address,uint256)": {
        "details": "See {IERC721-safeTransferFrom}."
      },
      "safeTransferFrom(address,address,uint256,bytes)": {
        "details": "See {IERC721-safeTransferFrom}."
      },
      "setApprovalForAll(address,bool)": {
        "details": "See {IERC721-setApprovalForAll}."
      },
      "supportsInterface(bytes4)": {
        "details": "See {IERC165-supportsInterface}."
      },
      "symbol()": {
        "details": "See {IERC721Metadata-symbol}."
      },
      "tokenByIndex(uint256)": {
        "details": "See {IERC721Enumerable-tokenByIndex}."
      },
      "tokenOfOwnerByIndex(address,uint256)": {
        "details": "See {IERC721Enumerable-tokenOfOwnerByIndex}."
      },
      "tokenURI(uint256)": {
        "details": "See {IERC721Metadata-tokenURI}."
      },
      "totalSupply()": {
        "details": "See {IERC721Enumerable-totalSupply}."
      },
      "transferFrom(address,address,uint256)": {
        "details": "See {IERC721-transferFrom}."
      },
      "transferOwnership(address)": {
        "details": "Transfers ownership of the contract to a new account (`newOwner`). Can only be called by the current owner."
      }
    },
    "version": 1
  },
  "userdoc": {
    "kind": "user",
    "methods": {},
    "version": 1
  }
}