{
  "contractName": "NFTPay",
  "abi": [
    {
      "inputs": [
        {
          "internalType": "string",
          "name": "name",
          "type": "string"
        },
        {
          "internalType": "string",
          "name": "symbol",
          "type": "string"
        }
      ],
      "stateMutability": "nonpayable",
      "type": "constructor"
    },
    {
      "anonymous": false,
      "inputs": [
        {
          "indexed": true,
          "internalType": "address",
          "name": "owner",
          "type": "address"
        },
        {
          "indexed": true,
          "internalType": "address",
          "name": "approved",
          "type": "address"
        },
        {
          "indexed": true,
          "internalType": "uint256",
          "name": "tokenId",
          "type": "uint256"
        }
      ],
      "name": "Approval",
      "type": "event"
    },
    {
      "anonymous": false,
      "inputs": [
        {
          "indexed": true,
          "internalType": "address",
          "name": "owner",
          "type": "address"
        },
        {
          "indexed": true,
          "internalType": "address",
          "name": "operator",
          "type": "address"
        },
        {
          "indexed": false,
          "internalType": "bool",
          "name": "approved",
          "type": "bool"
        }
      ],
      "name": "ApprovalForAll",
      "type": "event"
    },
    {
      "anonymous": false,
      "inputs": [
        {
          "indexed": true,
          "internalType": "address",
          "name": "owner",
          "type": "address"
        },
        {
          "indexed": true,
          "internalType": "uint256",
          "name": "tokenId",
          "type": "uint256"
        },
        {
          "indexed": false,
          "internalType": "string",
          "name": "name",
          "type": "string"
        },
        {
          "indexed": false,
          "internalType": "string",
          "name": "addressInfo",
          "type": "string"
        },
        {
          "indexed": false,
          "internalType": "uint256",
          "name": "number",
          "type": "uint256"
        },
        {
          "indexed": false,
          "internalType": "uint256",
          "name": "price",
          "type": "uint256"
        }
      ],
      "name": "NFTMinted",
      "type": "event"
    },
    {
      "anonymous": false,
      "inputs": [
        {
          "indexed": true,
          "internalType": "address",
          "name": "previousOwner",
          "type": "address"
        },
        {
          "indexed": true,
          "internalType": "address",
          "name": "newOwner",
          "type": "address"
        }
      ],
      "name": "OwnershipTransferred",
      "type": "event"
    },
    {
      "anonymous": false,
      "inputs": [
        {
          "indexed": true,
          "internalType": "address",
          "name": "from",
          "type": "address"
        },
        {
          "indexed": true,
          "internalType": "address",
          "name": "to",
          "type": "address"
        },
        {
          "indexed": true,
          "internalType": "uint256",
          "name": "tokenId",
          "type": "uint256"
        }
      ],
      "name": "Transfer",
      "type": "event"
    },
    {
      "inputs": [
        {
          "internalType": "address",
          "name": "to",
          "type": "address"
        },
        {
          "internalType": "uint256",
          "name": "tokenId",
          "type": "uint256"
        }
      ],
      "name": "approve",
      "outputs": [],
      "stateMutability": "nonpayable",
      "type": "function"
    },
    {
      "inputs": [
        {
          "internalType": "address",
          "name": "owner",
          "type": "address"
        }
      ],
      "name": "balanceOf",
      "outputs": [
        {
          "internalType": "uint256",
          "name": "",
          "type": "uint256"
        }
      ],
      "stateMutability": "view",
      "type": "function",
      "constant": true
    },
    {
      "inputs": [
        {
          "internalType": "uint256",
          "name": "tokenId",
          "type": "uint256"
        }
      ],
      "name": "getApproved",
      "outputs": [
        {
          "internalType": "address",
          "name": "",
          "type": "address"
        }
      ],
      "stateMutability": "view",
      "type": "function",
      "constant": true
    },
    {
      "inputs": [
        {
          "internalType": "address",
          "name": "owner",
          "type": "address"
        },
        {
          "internalType": "address",
          "name": "operator",
          "type": "address"
        }
      ],
      "name": "isApprovedForAll",
      "outputs": [
        {
          "internalType": "bool",
          "name": "",
          "type": "bool"
        }
      ],
      "stateMutability": "view",
      "type": "function",
      "constant": true
    },
    {
      "inputs": [],
      "name": "name",
      "outputs": [
        {
          "internalType": "string",
          "name": "",
          "type": "string"
        }
      ],
      "stateMutability": "view",
      "type": "function",
      "constant": true
    },
    {
      "inputs": [],
      "name": "owner",
      "outputs": [
        {
          "internalType": "address",
          "name": "",
          "type": "address"
        }
      ],
      "stateMutability": "view",
      "type": "function",
      "constant": true
    },
    {
      "inputs": [
        {
          "internalType": "uint256",
          "name": "tokenId",
          "type": "uint256"
        }
      ],
      "name": "ownerOf",
      "outputs": [
        {
          "internalType": "address",
          "name": "",
          "type": "address"
        }
      ],
      "stateMutability": "view",
      "type": "function",
      "constant": true
    },
    {
      "inputs": [],
      "name": "renounceOwnership",
      "outputs": [],
      "stateMutability": "nonpayable",
      "type": "function"
    },
    {
      "inputs": [
        {
          "internalType": "address",
          "name": "from",
          "type": "address"
        },
        {
          "internalType": "address",
          "name": "to",
          "type": "address"
        },
        {
          "internalType": "uint256",
          "name": "tokenId",
          "type": "uint256"
        }
      ],
      "name": "safeTransferFrom",
      "outputs": [],
      "stateMutability": "nonpayable",
      "type": "function"
    },
    {
      "inputs": [
        {
          "internalType": "address",
          "name": "from",
          "type": "address"
        },
        {
          "internalType": "address",
          "name": "to",
          "type": "address"
        },
        {
          "internalType": "uint256",
          "name": "tokenId",
          "type": "uint256"
        },
        {
          "internalType": "bytes",
          "name": "data",
          "type": "bytes"
        }
      ],
      "name": "safeTransferFrom",
      "outputs": [],
      "stateMutability": "nonpayable",
      "type": "function"
    },
    {
      "inputs": [
        {
          "internalType": "address",
          "name": "operator",
          "type": "address"
        },
        {
          "internalType": "bool",
          "name": "approved",
          "type": "bool"
        }
      ],
      "name": "setApprovalForAll",
      "outputs": [],
      "stateMutability": "nonpayable",
      "type": "function"
    },
    {
      "inputs": [
        {
          "internalType": "bytes4",
          "name": "interfaceId",
          "type": "bytes4"
        }
      ],
      "name": "supportsInterface",
      "outputs": [
        {
          "internalType": "bool",
          "name": "",
          "type": "bool"
        }
      ],
      "stateMutability": "view",
      "type": "function",
      "constant": true
    },
    {
      "inputs": [],
      "name": "symbol",
      "outputs": [
        {
          "internalType": "string",
          "name": "",
          "type": "string"
        }
      ],
      "stateMutability": "view",
      "type": "function",
      "constant": true
    },
    {
      "inputs": [
        {
          "internalType": "uint256",
          "name": "index",
          "type": "uint256"
        }
      ],
      "name": "tokenByIndex",
      "outputs": [
        {
          "internalType": "uint256",
          "name": "",
          "type": "uint256"
        }
      ],
      "stateMutability": "view",
      "type": "function",
      "constant": true
    },
    {
      "inputs": [
        {
          "internalType": "address",
          "name": "owner",
          "type": "address"
        },
        {
          "internalType": "uint256",
          "name": "index",
          "type": "uint256"
        }
      ],
      "name": "tokenOfOwnerByIndex",
      "outputs": [
        {
          "internalType": "uint256",
          "name": "",
          "type": "uint256"
        }
      ],
      "stateMutability": "view",
      "type": "function",
      "constant": true
    },
    {
      "inputs": [
        {
          "internalType": "uint256",
          "name": "tokenId",
          "type": "uint256"
        }
      ],
      "name": "tokenURI",
      "outputs": [
        {
          "internalType": "string",
          "name": "",
          "type": "string"
        }
      ],
      "stateMutability": "view",
      "type": "function",
      "constant": true
    },
    {
      "inputs": [],
      "name": "totalSupply",
      "outputs": [
        {
          "internalType": "uint256",
          "name": "",
          "type": "uint256"
        }
      ],
      "stateMutability": "view",
      "type": "function",
      "constant": true
    },
    {
      "inputs": [
        {
          "internalType": "address",
          "name": "from",
          "type": "address"
        },
        {
          "internalType": "address",
          "name": "to",
          "type": "address"
        },
        {
          "internalType": "uint256",
          "name": "tokenId",
          "type": "uint256"
        }
      ],
      "name": "transferFrom",
      "outputs": [],
      "stateMutability": "nonpayable",
      "type": "function"
    },
    {
      "inputs": [
        {
          "internalType": "address",
          "name": "newOwner",
          "type": "address"
        }
      ],
      "name": "transferOwnership",
      "outputs": [],
      "stateMutability": "nonpayable",
      "type": "function"
    },
    {
      "inputs": [
        {
          "internalType": "address",
          "name": "to",
          "type": "address"
        },
        {
          "internalType": "uint256",
          "name": "tokenId",
          "type": "uint256"
        },
        {
          "internalType": "string",
          "name": "name",
          "type": "string"
        },
        {
          "internalType": "string",
          "name": "addressInfo",
          "type": "string"
        },
        {
          "internalType": "uint256",
          "name": "number",
          "type": "uint256"
        },
        {
          "internalType": "uint256",
          "name": "price",
          "type": "uint256"
        }
      ],
      "name": "mint",
      "outputs": [],
      "stateMutability": "nonpayable",
      "type": "function"
    },
    {
      "inputs": [
        {
          "internalType": "uint256",
          "name": "tokenId",
          "type": "uint256"
        },
        {
          "internalType": "uint256",
          "name": "price",
          "type": "uint256"
        }
      ],
      "name": "listNFT",
      "outputs": [],
      "stateMutability": "nonpayable",
      "type": "function"
    },
    {
      "inputs": [
        {
          "internalType": "uint256",
          "name": "tokenId",
          "type": "uint256"
        }
      ],
      "name": "buyNFT",
      "outputs": [],
      "stateMutability": "payable",
      "type": "function",
      "payable": true
    },
    {
      "inputs": [
        {
          "internalType": "uint256",
          "name": "tokenId",
          "type": "uint256"
        }
      ],
      "name": "getTokenData",
      "outputs": [
        {
          "internalType": "string",
          "name": "name",
          "type": "string"
        },
        {
          "internalType": "string",
          "name": "addressInfo",
          "type": "string"
        },
        {
          "internalType": "uint256",
          "name": "number",
          "type": "uint256"
        },
        {
          "internalType": "uint256",
          "name": "price",
          "type": "uint256"
        },
        {
          "internalType": "address",
          "name": "owner",
          "type": "address"
        }
      ],
      "stateMutability": "view",
      "type": "function",
      "constant": true
    },
    {
      "inputs": [],
      "name": "getTotalIds",
      "outputs": [
        {
          "internalType": "uint256",
          "name": "",
          "type": "uint256"
        }
      ],
      "stateMutability": "view",
      "type": "function",
      "constant": true
    },
    {
      "inputs": [
        {
          "internalType": "address",
          "name": "owner",
          "type": "address"
        }
      ],
      "name": "getTokensOwnedBy",
      "outputs": [
        {
          "internalType": "uint256[]",
          "name": "",
          "type": "uint256[]"
        }
      ],
      "stateMutability": "view",
      "type": "function",
      "constant": true
    },
    {
      "inputs": [
        {
          "internalType": "address",
          "name": "owner",
          "type": "address"
        }
      ],
      "name": "getTokenDataForOwner",
      "outputs": [
        {
          "components": [
            {
              "internalType": "string",
              "name": "name",
              "type": "string"
            },
            {
              "internalType": "string",
              "name": "addressInfo",
              "type": "string"
            },
            {
              "internalType": "uint256",
              "name": "number",
              "type": "uint256"
            },
            {
              "internalType": "uint256",
              "name": "price",
              "type": "uint256"
            },
            {
              "internalType": "address",
              "name": "owner",
              "type": "address"
            }
          ],
          "internalType": "struct NFTPay.TokenData[]",
          "name": "",
          "type": "tuple[]"
        }
      ],
      "stateMutability": "view",
      "type": "function",
      "constant": true
    }
  ],
  "bytecode": "0x608060405234801562000010575f80fd5b5060405162004ec838038062004ec88339818101604052810190620000369190620002d4565b8181815f90816200004891906200058e565b5080600190816200005a91906200058e565b5050506200007d620000716200008560201b60201c565b6200008c60201b60201c565b505062000672565b5f33905090565b5f600a5f9054906101000a900473ffffffffffffffffffffffffffffffffffffffff16905081600a5f6101000a81548173ffffffffffffffffffffffffffffffffffffffff021916908373ffffffffffffffffffffffffffffffffffffffff1602179055508173ffffffffffffffffffffffffffffffffffffffff168173ffffffffffffffffffffffffffffffffffffffff167f8be0079c531659141344cd1fd0a4f28419497f9722a3daafe3b4186f6b6457e060405160405180910390a35050565b5f604051905090565b5f80fd5b5f80fd5b5f80fd5b5f80fd5b5f601f19601f8301169050919050565b7f4e487b71000000000000000000000000000000000000000000000000000000005f52604160045260245ffd5b620001b08262000168565b810181811067ffffffffffffffff82111715620001d257620001d162000178565b5b80604052505050565b5f620001e66200014f565b9050620001f48282620001a5565b919050565b5f67ffffffffffffffff82111562000216576200021562000178565b5b620002218262000168565b9050602081019050919050565b5f5b838110156200024d57808201518184015260208101905062000230565b5f8484015250505050565b5f6200026e6200026884620001f9565b620001db565b9050828152602081018484840111156200028d576200028c62000164565b5b6200029a8482856200022e565b509392505050565b5f82601f830112620002b957620002b862000160565b5b8151620002cb84826020860162000258565b91505092915050565b5f8060408385031215620002ed57620002ec62000158565b5b5f83015167ffffffffffffffff8111156200030d576200030c6200015c565b5b6200031b85828601620002a2565b925050602083015167ffffffffffffffff8111156200033f576200033e6200015c565b5b6200034d85828601620002a2565b9150509250929050565b5f81519050919050565b7f4e487b71000000000000000000000000000000000000000000000000000000005f52602260045260245ffd5b5f6002820490506001821680620003a657607f821691505b602082108103620003bc57620003bb62000361565b5b50919050565b5f819050815f5260205f209050919050565b5f6020601f8301049050919050565b5f82821b905092915050565b5f60088302620004207fffffffffffffffffffffffffffffffffffffffffffffffffffffffffffffffff82620003e3565b6200042c8683620003e3565b95508019841693508086168417925050509392505050565b5f819050919050565b5f819050919050565b5f62000476620004706200046a8462000444565b6200044d565b62000444565b9050919050565b5f819050919050565b620004918362000456565b620004a9620004a0826200047d565b848454620003ef565b825550505050565b5f90565b620004bf620004b1565b620004cc81848462000486565b505050565b5b81811015620004f357620004e75f82620004b5565b600181019050620004d2565b5050565b601f82111562000542576200050c81620003c2565b6200051784620003d4565b8101602085101562000527578190505b6200053f6200053685620003d4565b830182620004d1565b50505b505050565b5f82821c905092915050565b5f620005645f198460080262000547565b1980831691505092915050565b5f6200057e838362000553565b9150826002028217905092915050565b620005998262000357565b67ffffffffffffffff811115620005b557620005b462000178565b5b620005c182546200038e565b620005ce828285620004f7565b5f60209050601f83116001811462000604575f8415620005ef578287015190505b620005fb858262000571565b8655506200066a565b601f1984166200061486620003c2565b5f5b828110156200063d5784890151825560018201915060208501945060208101905062000616565b868310156200065d578489015162000659601f89168262000553565b8355505b6001600288020188555050505b505050505050565b61484880620006805f395ff3fe608060405260043610610180575f3560e01c806370a08231116100d0578063b09afec111610089578063c87b56dd11610063578063c87b56dd14610596578063e2b02047146105d2578063e985e9c5146105fc578063f2fde38b1461063857610180565b8063b09afec114610506578063b268245e14610546578063b88d4fde1461056e57610180565b806370a0823114610410578063715018a61461044c5780638da5cb5b1461046257806394383f141461048c57806395d89b41146104b4578063a22cb465146104de57610180565b806323b872dd1161013d57806342842e0e1161011757806342842e0e146103545780634f6ccce71461037c57806351ed8288146103b85780636352211e146103d457610180565b806323b872dd146102b45780632f745c59146102dc5780633d4392c01461031857610180565b806301ffc9a7146101845780630203a5cf146101c057806306fdde03146101fc578063081812fc14610226578063095ea7b31461026257806318160ddd1461028a575b5f80fd5b34801561018f575f80fd5b506101aa60048036038101906101a59190612db3565b610660565b6040516101b79190612df8565b60405180910390f35b3480156101cb575f80fd5b506101e660048036038101906101e19190612e6b565b6106d9565b6040516101f3919061307c565b60405180910390f35b348015610207575f80fd5b50610210610949565b60405161021d91906130e4565b60405180910390f35b348015610231575f80fd5b5061024c6004803603810190610247919061312e565b6109d8565b6040516102599190613168565b60405180910390f35b34801561026d575f80fd5b5061028860048036038101906102839190613181565b610a1a565b005b348015610295575f80fd5b5061029e610b30565b6040516102ab91906131ce565b60405180910390f35b3480156102bf575f80fd5b506102da60048036038101906102d591906131e7565b610b3c565b005b3480156102e7575f80fd5b5061030260048036038101906102fd9190613181565b610b9c565b60405161030f91906131ce565b60405180910390f35b348015610323575f80fd5b5061033e60048036038101906103399190612e6b565b610c3c565b60405161034b91906132df565b60405180910390f35b34801561035f575f80fd5b5061037a600480360381019061037591906131e7565b610ce7565b005b348015610387575f80fd5b506103a2600480360381019061039d919061312e565b610d06565b6040516103af91906131ce565b60405180910390f35b6103d260048036038101906103cd919061312e565b610d74565b005b3480156103df575f80fd5b506103fa60048036038101906103f5919061312e565b61106a565b6040516104079190613168565b60405180910390f35b34801561041b575f80fd5b5061043660048036038101906104319190612e6b565b6110ee565b60405161044391906131ce565b60405180910390f35b348015610457575f80fd5b506104606111a2565b005b34801561046d575f80fd5b506104766111b5565b6040516104839190613168565b60405180910390f35b348015610497575f80fd5b506104b260048036038101906104ad91906132ff565b6111dd565b005b3480156104bf575f80fd5b506104c8611328565b6040516104d591906130e4565b60405180910390f35b3480156104e9575f80fd5b5061050460048036038101906104ff9190613367565b6113b8565b005b348015610511575f80fd5b5061052c6004803603810190610527919061312e565b6113ce565b60405161053d9594939291906133a5565b60405180910390f35b348015610551575f80fd5b5061056c60048036038101906105679190613530565b6115ef565b005b348015610579575f80fd5b50610594600480360381019061058f919061368f565b61166c565b005b3480156105a1575f80fd5b506105bc60048036038101906105b7919061312e565b6116ce565b6040516105c991906130e4565b60405180910390f35b3480156105dd575f80fd5b506105e6611733565b6040516105f391906131ce565b60405180910390f35b348015610607575f80fd5b50610622600480360381019061061d919061370f565b611741565b60405161062f9190612df8565b60405180910390f35b348015610643575f80fd5b5061065e60048036038101906106599190612e6b565b6117cf565b005b5f7f780e9d63000000000000000000000000000000000000000000000000000000007bffffffffffffffffffffffffffffffffffffffffffffffffffffffff1916827bffffffffffffffffffffffffffffffffffffffffffffffffffffffff191614806106d257506106d182611851565b5b9050919050565b60605f6106e583610c3c565b90505f815167ffffffffffffffff8111156107035761070261340c565b5b60405190808252806020026020018201604052801561073c57816020015b610729612d0b565b8152602001906001900390816107215790505b5090505f5b825181101561093e575f83828151811061075e5761075d61374d565b5b60200260200101519050600b5f8281526020019081526020015f206040518060a00160405290815f82018054610793906137a7565b80601f01602080910402602001604051908101604052809291908181526020018280546107bf906137a7565b801561080a5780601f106107e15761010080835404028352916020019161080a565b820191905f5260205f20905b8154815290600101906020018083116107ed57829003601f168201915b50505050508152602001600182018054610823906137a7565b80601f016020809104026020016040519081016040528092919081815260200182805461084f906137a7565b801561089a5780601f106108715761010080835404028352916020019161089a565b820191905f5260205f20905b81548152906001019060200180831161087d57829003601f168201915b505050505081526020016002820154815260200160038201548152602001600482015f9054906101000a900473ffffffffffffffffffffffffffffffffffffffff1673ffffffffffffffffffffffffffffffffffffffff1673ffffffffffffffffffffffffffffffffffffffff168152505083838151811061091f5761091e61374d565b5b602002602001018190525050808061093690613804565b915050610741565b508092505050919050565b60605f8054610957906137a7565b80601f0160208091040260200160405190810160405280929190818152602001828054610983906137a7565b80156109ce5780601f106109a5576101008083540402835291602001916109ce565b820191905f5260205f20905b8154815290600101906020018083116109b157829003601f168201915b5050505050905090565b5f6109e282611932565b60045f8381526020019081526020015f205f9054906101000a900473ffffffffffffffffffffffffffffffffffffffff169050919050565b5f610a248261106a565b90508073ffffffffffffffffffffffffffffffffffffffff168373ffffffffffffffffffffffffffffffffffffffff1603610a94576040517f08c379a0000000000000000000000000000000000000000000000000000000008152600401610a8b906138bb565b60405180910390fd5b8073ffffffffffffffffffffffffffffffffffffffff16610ab361197d565b73ffffffffffffffffffffffffffffffffffffffff161480610ae25750610ae181610adc61197d565b611741565b5b610b21576040517f08c379a0000000000000000000000000000000000000000000000000000000008152600401610b1890613949565b60405180910390fd5b610b2b8383611984565b505050565b5f600880549050905090565b610b4d610b4761197d565b82611a3a565b610b8c576040517f08c379a0000000000000000000000000000000000000000000000000000000008152600401610b83906139d7565b60405180910390fd5b610b97838383611ace565b505050565b5f610ba6836110ee565b8210610be7576040517f08c379a0000000000000000000000000000000000000000000000000000000008152600401610bde90613a65565b60405180910390fd5b60065f8473ffffffffffffffffffffffffffffffffffffffff1673ffffffffffffffffffffffffffffffffffffffff1681526020019081526020015f205f8381526020019081526020015f2054905092915050565b60605f610c48836110ee565b90505f8167ffffffffffffffff811115610c6557610c6461340c565b5b604051908082528060200260200182016040528015610c935781602001602082028036833780820191505090505b5090505f5b82811015610cdc57610caa8582610b9c565b828281518110610cbd57610cbc61374d565b5b6020026020010181815250508080610cd490613804565b915050610c98565b508092505050919050565b610d0183838360405180602001604052805f81525061166c565b505050565b5f610d0f610b30565b8210610d50576040517f08c379a0000000000000000000000000000000000000000000000000000000008152600401610d4790613af3565b60405180910390fd5b60088281548110610d6457610d6361374d565b5b905f5260205f2001549050919050565b5f600b5f8381526020019081526020015f206040518060a00160405290815f82018054610da0906137a7565b80601f0160208091040260200160405190810160405280929190818152602001828054610dcc906137a7565b8015610e175780601f10610dee57610100808354040283529160200191610e17565b820191905f5260205f20905b815481529060010190602001808311610dfa57829003601f168201915b50505050508152602001600182018054610e30906137a7565b80601f0160208091040260200160405190810160405280929190818152602001828054610e5c906137a7565b8015610ea75780601f10610e7e57610100808354040283529160200191610ea7565b820191905f5260205f20905b815481529060010190602001808311610e8a57829003601f168201915b505050505081526020016002820154815260200160038201548152602001600482015f9054906101000a900473ffffffffffffffffffffffffffffffffffffffff1673ffffffffffffffffffffffffffffffffffffffff1673ffffffffffffffffffffffffffffffffffffffff168152505090505f816060015111610f61576040517f08c379a0000000000000000000000000000000000000000000000000000000008152600401610f5890613b81565b60405180910390fd5b80606001513414610fa7576040517f08c379a0000000000000000000000000000000000000000000000000000000008152600401610f9e90613be9565b60405180910390fd5b5f816080015190505f339050610fbe828286611ace565b610fc784611dba565b8173ffffffffffffffffffffffffffffffffffffffff166108fc846060015190811502906040515f60405180830381858888f1935050505015801561100e573d5f803e3d5ffd5b50838173ffffffffffffffffffffffffffffffffffffffff167f09b594317361a2551a5d6e1e4f48aedbda82fa2ff8dd7e1a4bb5dc4a73fd1d2f5f866060015160405161105c929190613c6c565b60405180910390a350505050565b5f8061107583611e28565b90505f73ffffffffffffffffffffffffffffffffffffffff168173ffffffffffffffffffffffffffffffffffffffff16036110e5576040517f08c379a00000000000000000000000000000000000000000000000000000000081526004016110dc90613d03565b60405180910390fd5b80915050919050565b5f8073ffffffffffffffffffffffffffffffffffffffff168273ffffffffffffffffffffffffffffffffffffffff160361115d576040517f08c379a000000000000000000000000000000000000000000000000000000000815260040161115490613d91565b60405180910390fd5b60035f8373ffffffffffffffffffffffffffffffffffffffff1673ffffffffffffffffffffffffffffffffffffffff1681526020019081526020015f20549050919050565b6111aa611e61565b6111b35f611edf565b565b5f600a5f9054906101000a900473ffffffffffffffffffffffffffffffffffffffff16905090565b5f811161121f576040517f08c379a000000000000000000000000000000000000000000000000000000000815260040161121690613e1f565b60405180910390fd5b6112293383611a3a565b611268576040517f08c379a000000000000000000000000000000000000000000000000000000000815260040161125f90613ead565b60405180910390fd5b80600b5f8481526020019081526020015f206003018190555033600b5f8481526020019081526020015f206004015f6101000a81548173ffffffffffffffffffffffffffffffffffffffff021916908373ffffffffffffffffffffffffffffffffffffffff160217905550813373ffffffffffffffffffffffffffffffffffffffff167f09b594317361a2551a5d6e1e4f48aedbda82fa2ff8dd7e1a4bb5dc4a73fd1d2f5f8460405161131c929190613c6c565b60405180910390a35050565b606060018054611337906137a7565b80601f0160208091040260200160405190810160405280929190818152602001828054611363906137a7565b80156113ae5780601f10611385576101008083540402835291602001916113ae565b820191905f5260205f20905b81548152906001019060200180831161139157829003601f168201915b5050505050905090565b6113ca6113c361197d565b8383611fa2565b5050565b6060805f805f6113dd86612109565b61141c576040517f08c379a000000000000000000000000000000000000000000000000000000000815260040161141390613f15565b60405180910390fd5b5f600b5f8881526020019081526020015f206040518060a00160405290815f82018054611448906137a7565b80601f0160208091040260200160405190810160405280929190818152602001828054611474906137a7565b80156114bf5780601f10611496576101008083540402835291602001916114bf565b820191905f5260205f20905b8154815290600101906020018083116114a257829003601f168201915b505050505081526020016001820180546114d8906137a7565b80601f0160208091040260200160405190810160405280929190818152602001828054611504906137a7565b801561154f5780601f106115265761010080835404028352916020019161154f565b820191905f5260205f20905b81548152906001019060200180831161153257829003601f168201915b505050505081526020016002820154815260200160038201548152602001600482015f9054906101000a900473ffffffffffffffffffffffffffffffffffffffff1673ffffffffffffffffffffffffffffffffffffffff1673ffffffffffffffffffffffffffffffffffffffff16815250509050805f01518160200151826040015183606001518460800151955095509550955095505091939590929450565b6115f7611e61565b6116018686612149565b61160f85858585858b61235c565b848673ffffffffffffffffffffffffffffffffffffffff167f09b594317361a2551a5d6e1e4f48aedbda82fa2ff8dd7e1a4bb5dc4a73fd1d2f8686868660405161165c9493929190613f33565b60405180910390a3505050505050565b61167d61167761197d565b83611a3a565b6116bc576040517f08c379a00000000000000000000000000000000000000000000000000000000081526004016116b3906139d7565b60405180910390fd5b6116c884848484612438565b50505050565b60606116d982611932565b5f6116e2612494565b90505f8151116117005760405180602001604052805f81525061172b565b8061170a846124aa565b60405160200161171b929190613fbe565b6040516020818303038152906040525b915050919050565b5f61173c610b30565b905090565b5f60055f8473ffffffffffffffffffffffffffffffffffffffff1673ffffffffffffffffffffffffffffffffffffffff1681526020019081526020015f205f8373ffffffffffffffffffffffffffffffffffffffff1673ffffffffffffffffffffffffffffffffffffffff1681526020019081526020015f205f9054906101000a900460ff16905092915050565b6117d7611e61565b5f73ffffffffffffffffffffffffffffffffffffffff168173ffffffffffffffffffffffffffffffffffffffff1603611845576040517f08c379a000000000000000000000000000000000000000000000000000000000815260040161183c90614051565b60405180910390fd5b61184e81611edf565b50565b5f7f80ac58cd000000000000000000000000000000000000000000000000000000007bffffffffffffffffffffffffffffffffffffffffffffffffffffffff1916827bffffffffffffffffffffffffffffffffffffffffffffffffffffffff1916148061191b57507f5b5e139f000000000000000000000000000000000000000000000000000000007bffffffffffffffffffffffffffffffffffffffffffffffffffffffff1916827bffffffffffffffffffffffffffffffffffffffffffffffffffffffff1916145b8061192b575061192a82612574565b5b9050919050565b61193b81612109565b61197a576040517f08c379a000000000000000000000000000000000000000000000000000000000815260040161197190613d03565b60405180910390fd5b50565b5f33905090565b8160045f8381526020019081526020015f205f6101000a81548173ffffffffffffffffffffffffffffffffffffffff021916908373ffffffffffffffffffffffffffffffffffffffff160217905550808273ffffffffffffffffffffffffffffffffffffffff166119f48361106a565b73ffffffffffffffffffffffffffffffffffffffff167f8c5be1e5ebec7d5bd14f71427d1e84f3dd0314c0f7b2291e5b200ac8c7c3b92560405160405180910390a45050565b5f80611a458361106a565b90508073ffffffffffffffffffffffffffffffffffffffff168473ffffffffffffffffffffffffffffffffffffffff161480611a875750611a868185611741565b5b80611ac557508373ffffffffffffffffffffffffffffffffffffffff16611aad846109d8565b73ffffffffffffffffffffffffffffffffffffffff16145b91505092915050565b8273ffffffffffffffffffffffffffffffffffffffff16611aee8261106a565b73ffffffffffffffffffffffffffffffffffffffff1614611b44576040517f08c379a0000000000000000000000000000000000000000000000000000000008152600401611b3b906140df565b60405180910390fd5b5f73ffffffffffffffffffffffffffffffffffffffff168273ffffffffffffffffffffffffffffffffffffffff1603611bb2576040517f08c379a0000000000000000000000000000000000000000000000000000000008152600401611ba99061416d565b60405180910390fd5b611bbf83838360016125dd565b8273ffffffffffffffffffffffffffffffffffffffff16611bdf8261106a565b73ffffffffffffffffffffffffffffffffffffffff1614611c35576040517f08c379a0000000000000000000000000000000000000000000000000000000008152600401611c2c906140df565b60405180910390fd5b60045f8281526020019081526020015f205f6101000a81549073ffffffffffffffffffffffffffffffffffffffff0219169055600160035f8573ffffffffffffffffffffffffffffffffffffffff1673ffffffffffffffffffffffffffffffffffffffff1681526020019081526020015f205f8282540392505081905550600160035f8473ffffffffffffffffffffffffffffffffffffffff1673ffffffffffffffffffffffffffffffffffffffff1681526020019081526020015f205f82825401925050819055508160025f8381526020019081526020015f205f6101000a81548173ffffffffffffffffffffffffffffffffffffffff021916908373ffffffffffffffffffffffffffffffffffffffff160217905550808273ffffffffffffffffffffffffffffffffffffffff168473ffffffffffffffffffffffffffffffffffffffff167fddf252ad1be2c89b69c2b068fc378daa952ba7f163c4a11628f55a4df523b3ef60405160405180910390a4611db58383836001612738565b505050565b5f600b5f8381526020019081526020015f20600301819055505f600b5f8381526020019081526020015f206004015f6101000a81548173ffffffffffffffffffffffffffffffffffffffff021916908373ffffffffffffffffffffffffffffffffffffffff16021790555050565b5f60025f8381526020019081526020015f205f9054906101000a900473ffffffffffffffffffffffffffffffffffffffff169050919050565b611e6961197d565b73ffffffffffffffffffffffffffffffffffffffff16611e876111b5565b73ffffffffffffffffffffffffffffffffffffffff1614611edd576040517f08c379a0000000000000000000000000000000000000000000000000000000008152600401611ed4906141d5565b60405180910390fd5b565b5f600a5f9054906101000a900473ffffffffffffffffffffffffffffffffffffffff16905081600a5f6101000a81548173ffffffffffffffffffffffffffffffffffffffff021916908373ffffffffffffffffffffffffffffffffffffffff1602179055508173ffffffffffffffffffffffffffffffffffffffff168173ffffffffffffffffffffffffffffffffffffffff167f8be0079c531659141344cd1fd0a4f28419497f9722a3daafe3b4186f6b6457e060405160405180910390a35050565b8173ffffffffffffffffffffffffffffffffffffffff168373ffffffffffffffffffffffffffffffffffffffff1603612010576040517f08c379a00000000000000000000000000000000000000000000000000000000081526004016120079061423d565b60405180910390fd5b8060055f8573ffffffffffffffffffffffffffffffffffffffff1673ffffffffffffffffffffffffffffffffffffffff1681526020019081526020015f205f8473ffffffffffffffffffffffffffffffffffffffff1673ffffffffffffffffffffffffffffffffffffffff1681526020019081526020015f205f6101000a81548160ff0219169083151502179055508173ffffffffffffffffffffffffffffffffffffffff168373ffffffffffffffffffffffffffffffffffffffff167f17307eab39ab6107e8899845ad3d59bd9653f200f220920489ca2b5937696c31836040516120fc9190612df8565b60405180910390a3505050565b5f8073ffffffffffffffffffffffffffffffffffffffff1661212a83611e28565b73ffffffffffffffffffffffffffffffffffffffff1614159050919050565b5f73ffffffffffffffffffffffffffffffffffffffff168273ffffffffffffffffffffffffffffffffffffffff16036121b7576040517f08c379a00000000000000000000000000000000000000000000000000000000081526004016121ae906142a5565b60405180910390fd5b6121c081612109565b15612200576040517f08c379a00000000000000000000000000000000000000000000000000000000081526004016121f79061430d565b60405180910390fd5b61220d5f838360016125dd565b61221681612109565b15612256576040517f08c379a000000000000000000000000000000000000000000000000000000000815260040161224d9061430d565b60405180910390fd5b600160035f8473ffffffffffffffffffffffffffffffffffffffff1673ffffffffffffffffffffffffffffffffffffffff1681526020019081526020015f205f82825401925050819055508160025f8381526020019081526020015f205f6101000a81548173ffffffffffffffffffffffffffffffffffffffff021916908373ffffffffffffffffffffffffffffffffffffffff160217905550808273ffffffffffffffffffffffffffffffffffffffff165f73ffffffffffffffffffffffffffffffffffffffff167fddf252ad1be2c89b69c2b068fc378daa952ba7f163c4a11628f55a4df523b3ef60405160405180910390a46123585f83836001612738565b5050565b61236586612109565b6123a4576040517f08c379a000000000000000000000000000000000000000000000000000000000815260040161239b90613f15565b60405180910390fd5b5f600b5f8881526020019081526020015f20905085815f0190816123c891906144bf565b50848160010190816123da91906144bf565b5083816002018190555082816003018190555081816004015f6101000a81548173ffffffffffffffffffffffffffffffffffffffff021916908373ffffffffffffffffffffffffffffffffffffffff16021790555050505050505050565b612443848484611ace565b61244f8484848461273e565b61248e576040517f08c379a0000000000000000000000000000000000000000000000000000000008152600401612485906145fe565b60405180910390fd5b50505050565b606060405180602001604052805f815250905090565b60605f60016124b8846128c0565b0190505f8167ffffffffffffffff8111156124d6576124d561340c565b5b6040519080825280601f01601f1916602001820160405280156125085781602001600182028036833780820191505090505b5090505f82602001820190505b600115612569578080600190039150507f3031323334353637383961626364656600000000000000000000000000000000600a86061a8153600a858161255e5761255d61461c565b5b0494505f8503612515575b819350505050919050565b5f7f01ffc9a7000000000000000000000000000000000000000000000000000000007bffffffffffffffffffffffffffffffffffffffffffffffffffffffff1916827bffffffffffffffffffffffffffffffffffffffffffffffffffffffff1916149050919050565b6125e984848484612a11565b600181111561262d576040517f08c379a0000000000000000000000000000000000000000000000000000000008152600401612624906146b9565b60405180910390fd5b5f8290505f73ffffffffffffffffffffffffffffffffffffffff168573ffffffffffffffffffffffffffffffffffffffff16036126725761266d81612a17565b6126b1565b8373ffffffffffffffffffffffffffffffffffffffff168573ffffffffffffffffffffffffffffffffffffffff16146126b0576126af8582612a5b565b5b5b5f73ffffffffffffffffffffffffffffffffffffffff168473ffffffffffffffffffffffffffffffffffffffff16036126f2576126ed81612bb1565b612731565b8473ffffffffffffffffffffffffffffffffffffffff168473ffffffffffffffffffffffffffffffffffffffff16146127305761272f8482612c71565b5b5b5050505050565b50505050565b5f61275e8473ffffffffffffffffffffffffffffffffffffffff16612ce9565b156128b3578373ffffffffffffffffffffffffffffffffffffffff1663150b7a0261278761197d565b8786866040518563ffffffff1660e01b81526004016127a99493929190614729565b6020604051808303815f875af19250505080156127e457506040513d601f19601f820116820180604052508101906127e19190614787565b60015b612863573d805f8114612812576040519150601f19603f3d011682016040523d82523d5f602084013e612817565b606091505b505f81510361285b576040517f08c379a0000000000000000000000000000000000000000000000000000000008152600401612852906145fe565b60405180910390fd5b805181602001fd5b63150b7a0260e01b7bffffffffffffffffffffffffffffffffffffffffffffffffffffffff1916817bffffffffffffffffffffffffffffffffffffffffffffffffffffffff1916149150506128b8565b600190505b949350505050565b5f805f90507a184f03e93ff9f4daa797ed6e38ed64bf6a1f010000000000000000831061291c577a184f03e93ff9f4daa797ed6e38ed64bf6a1f01000000000000000083816129125761291161461c565b5b0492506040810190505b6d04ee2d6d415b85acef81000000008310612959576d04ee2d6d415b85acef8100000000838161294f5761294e61461c565b5b0492506020810190505b662386f26fc10000831061298857662386f26fc10000838161297e5761297d61461c565b5b0492506010810190505b6305f5e10083106129b1576305f5e10083816129a7576129a661461c565b5b0492506008810190505b61271083106129d65761271083816129cc576129cb61461c565b5b0492506004810190505b606483106129f957606483816129ef576129ee61461c565b5b0492506002810190505b600a8310612a08576001810190505b80915050919050565b50505050565b60088054905060095f8381526020019081526020015f2081905550600881908060018154018082558091505060019003905f5260205f20015f909190919091505550565b5f6001612a67846110ee565b612a7191906147b2565b90505f60075f8481526020019081526020015f20549050818114612b48575f60065f8673ffffffffffffffffffffffffffffffffffffffff1673ffffffffffffffffffffffffffffffffffffffff1681526020019081526020015f205f8481526020019081526020015f205490508060065f8773ffffffffffffffffffffffffffffffffffffffff1673ffffffffffffffffffffffffffffffffffffffff1681526020019081526020015f205f8481526020019081526020015f20819055508160075f8381526020019081526020015f2081905550505b60075f8481526020019081526020015f205f905560065f8573ffffffffffffffffffffffffffffffffffffffff1673ffffffffffffffffffffffffffffffffffffffff1681526020019081526020015f205f8381526020019081526020015f205f905550505050565b5f6001600880549050612bc491906147b2565b90505f60095f8481526020019081526020015f205490505f60088381548110612bf057612bef61374d565b5b905f5260205f20015490508060088381548110612c1057612c0f61374d565b5b905f5260205f2001819055508160095f8381526020019081526020015f208190555060095f8581526020019081526020015f205f90556008805480612c5857612c576147e5565b5b600190038181905f5260205f20015f9055905550505050565b5f612c7b836110ee565b90508160065f8573ffffffffffffffffffffffffffffffffffffffff1673ffffffffffffffffffffffffffffffffffffffff1681526020019081526020015f205f8381526020019081526020015f20819055508060075f8481526020019081526020015f2081905550505050565b5f808273ffffffffffffffffffffffffffffffffffffffff163b119050919050565b6040518060a0016040528060608152602001606081526020015f81526020015f81526020015f73ffffffffffffffffffffffffffffffffffffffff1681525090565b5f604051905090565b5f80fd5b5f80fd5b5f7fffffffff0000000000000000000000000000000000000000000000000000000082169050919050565b612d9281612d5e565b8114612d9c575f80fd5b50565b5f81359050612dad81612d89565b92915050565b5f60208284031215612dc857612dc7612d56565b5b5f612dd584828501612d9f565b91505092915050565b5f8115159050919050565b612df281612dde565b82525050565b5f602082019050612e0b5f830184612de9565b92915050565b5f73ffffffffffffffffffffffffffffffffffffffff82169050919050565b5f612e3a82612e11565b9050919050565b612e4a81612e30565b8114612e54575f80fd5b50565b5f81359050612e6581612e41565b92915050565b5f60208284031215612e8057612e7f612d56565b5b5f612e8d84828501612e57565b91505092915050565b5f81519050919050565b5f82825260208201905092915050565b5f819050602082019050919050565b5f81519050919050565b5f82825260208201905092915050565b5f5b83811015612ef6578082015181840152602081019050612edb565b5f8484015250505050565b5f601f19601f8301169050919050565b5f612f1b82612ebf565b612f258185612ec9565b9350612f35818560208601612ed9565b612f3e81612f01565b840191505092915050565b5f819050919050565b612f5b81612f49565b82525050565b612f6a81612e30565b82525050565b5f60a083015f8301518482035f860152612f8a8282612f11565b91505060208301518482036020860152612fa48282612f11565b9150506040830151612fb96040860182612f52565b506060830151612fcc6060860182612f52565b506080830151612fdf6080860182612f61565b508091505092915050565b5f612ff58383612f70565b905092915050565b5f602082019050919050565b5f61301382612e96565b61301d8185612ea0565b93508360208202850161302f85612eb0565b805f5b8581101561306a578484038952815161304b8582612fea565b945061305683612ffd565b925060208a01995050600181019050613032565b50829750879550505050505092915050565b5f6020820190508181035f8301526130948184613009565b905092915050565b5f82825260208201905092915050565b5f6130b682612ebf565b6130c0818561309c565b93506130d0818560208601612ed9565b6130d981612f01565b840191505092915050565b5f6020820190508181035f8301526130fc81846130ac565b905092915050565b61310d81612f49565b8114613117575f80fd5b50565b5f8135905061312881613104565b92915050565b5f6020828403121561314357613142612d56565b5b5f6131508482850161311a565b91505092915050565b61316281612e30565b82525050565b5f60208201905061317b5f830184613159565b92915050565b5f806040838503121561319757613196612d56565b5b5f6131a485828601612e57565b92505060206131b58582860161311a565b9150509250929050565b6131c881612f49565b82525050565b5f6020820190506131e15f8301846131bf565b92915050565b5f805f606084860312156131fe576131fd612d56565b5b5f61320b86828701612e57565b935050602061321c86828701612e57565b925050604061322d8682870161311a565b9150509250925092565b5f81519050919050565b5f82825260208201905092915050565b5f819050602082019050919050565b5f61326b8383612f52565b60208301905092915050565b5f602082019050919050565b5f61328d82613237565b6132978185613241565b93506132a283613251565b805f5b838110156132d25781516132b98882613260565b97506132c483613277565b9250506001810190506132a5565b5085935050505092915050565b5f6020820190508181035f8301526132f78184613283565b905092915050565b5f806040838503121561331557613314612d56565b5b5f6133228582860161311a565b92505060206133338582860161311a565b9150509250929050565b61334681612dde565b8114613350575f80fd5b50565b5f813590506133618161333d565b92915050565b5f806040838503121561337d5761337c612d56565b5b5f61338a85828601612e57565b925050602061339b85828601613353565b9150509250929050565b5f60a0820190508181035f8301526133bd81886130ac565b905081810360208301526133d181876130ac565b90506133e060408301866131bf565b6133ed60608301856131bf565b6133fa6080830184613159565b9695505050505050565b5f80fd5b5f80fd5b7f4e487b71000000000000000000000000000000000000000000000000000000005f52604160045260245ffd5b61344282612f01565b810181811067ffffffffffffffff821117156134615761346061340c565b5b80604052505050565b5f613473612d4d565b905061347f8282613439565b919050565b5f67ffffffffffffffff82111561349e5761349d61340c565b5b6134a782612f01565b9050602081019050919050565b828183375f83830152505050565b5f6134d46134cf84613484565b61346a565b9050828152602081018484840111156134f0576134ef613408565b5b6134fb8482856134b4565b509392505050565b5f82601f83011261351757613516613404565b5b81356135278482602086016134c2565b91505092915050565b5f805f805f8060c0878903121561354a57613549612d56565b5b5f61355789828a01612e57565b965050602061356889828a0161311a565b955050604087013567ffffffffffffffff81111561358957613588612d5a565b5b61359589828a01613503565b945050606087013567ffffffffffffffff8111156135b6576135b5612d5a565b5b6135c289828a01613503565b93505060806135d389828a0161311a565b92505060a06135e489828a0161311a565b9150509295509295509295565b5f67ffffffffffffffff82111561360b5761360a61340c565b5b61361482612f01565b9050602081019050919050565b5f61363361362e846135f1565b61346a565b90508281526020810184848401111561364f5761364e613408565b5b61365a8482856134b4565b509392505050565b5f82601f83011261367657613675613404565b5b8135613686848260208601613621565b91505092915050565b5f805f80608085870312156136a7576136a6612d56565b5b5f6136b487828801612e57565b94505060206136c587828801612e57565b93505060406136d68782880161311a565b925050606085013567ffffffffffffffff8111156136f7576136f6612d5a565b5b61370387828801613662565b91505092959194509250565b5f806040838503121561372557613724612d56565b5b5f61373285828601612e57565b925050602061374385828601612e57565b9150509250929050565b7f4e487b71000000000000000000000000000000000000000000000000000000005f52603260045260245ffd5b7f4e487b71000000000000000000000000000000000000000000000000000000005f52602260045260245ffd5b5f60028204905060018216806137be57607f821691505b6020821081036137d1576137d061377a565b5b50919050565b7f4e487b71000000000000000000000000000000000000000000000000000000005f52601160045260245ffd5b5f61380e82612f49565b91507fffffffffffffffffffffffffffffffffffffffffffffffffffffffffffffffff82036138405761383f6137d7565b5b600182019050919050565b7f4552433732313a20617070726f76616c20746f2063757272656e74206f776e655f8201527f7200000000000000000000000000000000000000000000000000000000000000602082015250565b5f6138a560218361309c565b91506138b08261384b565b604082019050919050565b5f6020820190508181035f8301526138d281613899565b9050919050565b7f4552433732313a20617070726f76652063616c6c6572206973206e6f7420746f5f8201527f6b656e206f776e6572206f7220617070726f76656420666f7220616c6c000000602082015250565b5f613933603d8361309c565b915061393e826138d9565b604082019050919050565b5f6020820190508181035f83015261396081613927565b9050919050565b7f4552433732313a2063616c6c6572206973206e6f7420746f6b656e206f776e655f8201527f72206f7220617070726f76656400000000000000000000000000000000000000602082015250565b5f6139c1602d8361309c565b91506139cc82613967565b604082019050919050565b5f6020820190508181035f8301526139ee816139b5565b9050919050565b7f455243373231456e756d657261626c653a206f776e657220696e646578206f755f8201527f74206f6620626f756e6473000000000000000000000000000000000000000000602082015250565b5f613a4f602b8361309c565b9150613a5a826139f5565b604082019050919050565b5f6020820190508181035f830152613a7c81613a43565b9050919050565b7f455243373231456e756d657261626c653a20676c6f62616c20696e646578206f5f8201527f7574206f6620626f756e64730000000000000000000000000000000000000000602082015250565b5f613add602c8361309c565b9150613ae882613a83565b604082019050919050565b5f6020820190508181035f830152613b0a81613ad1565b9050919050565b7f4e46544d61726b65743a204e4654206e6f74206c697374656420666f722073615f8201527f6c65000000000000000000000000000000000000000000000000000000000000602082015250565b5f613b6b60228361309c565b9150613b7682613b11565b604082019050919050565b5f6020820190508181035f830152613b9881613b5f565b9050919050565b7f4e46544d61726b65743a20696e636f72726563742070726963650000000000005f82015250565b5f613bd3601a8361309c565b9150613bde82613b9f565b602082019050919050565b5f6020820190508181035f830152613c0081613bc7565b9050919050565b50565b5f613c155f8361309c565b9150613c2082613c07565b5f82019050919050565b5f819050919050565b5f819050919050565b5f613c56613c51613c4c84613c2a565b613c33565b612f49565b9050919050565b613c6681613c3c565b82525050565b5f6080820190508181035f830152613c8381613c0a565b90508181036020830152613c9681613c0a565b9050613ca56040830185613c5d565b613cb260608301846131bf565b9392505050565b7f4552433732313a20696e76616c696420746f6b656e20494400000000000000005f82015250565b5f613ced60188361309c565b9150613cf882613cb9565b602082019050919050565b5f6020820190508181035f830152613d1a81613ce1565b9050919050565b7f4552433732313a2061646472657373207a65726f206973206e6f7420612076615f8201527f6c6964206f776e65720000000000000000000000000000000000000000000000602082015250565b5f613d7b60298361309c565b9150613d8682613d21565b604082019050919050565b5f6020820190508181035f830152613da881613d6f565b9050919050565b7f4e46544d61726b65743a207072696365206d75737420626520677265617465725f8201527f207468616e203000000000000000000000000000000000000000000000000000602082015250565b5f613e0960278361309c565b9150613e1482613daf565b604082019050919050565b5f6020820190508181035f830152613e3681613dfd565b9050919050565b7f4e46544d61726b65743a2063616c6c6572206973206e6f74206f776e6572206f5f8201527f7220617070726f76656400000000000000000000000000000000000000000000602082015250565b5f613e97602a8361309c565b9150613ea282613e3d565b604082019050919050565b5f6020820190508181035f830152613ec481613e8b565b9050919050565b7f546f6b656e20646f6573206e6f742065786973740000000000000000000000005f82015250565b5f613eff60148361309c565b9150613f0a82613ecb565b602082019050919050565b5f6020820190508181035f830152613f2c81613ef3565b9050919050565b5f6080820190508181035f830152613f4b81876130ac565b90508181036020830152613f5f81866130ac565b9050613f6e60408301856131bf565b613f7b60608301846131bf565b95945050505050565b5f81905092915050565b5f613f9882612ebf565b613fa28185613f84565b9350613fb2818560208601612ed9565b80840191505092915050565b5f613fc98285613f8e565b9150613fd58284613f8e565b91508190509392505050565b7f4f776e61626c653a206e6577206f776e657220697320746865207a65726f20615f8201527f6464726573730000000000000000000000000000000000000000000000000000602082015250565b5f61403b60268361309c565b915061404682613fe1565b604082019050919050565b5f6020820190508181035f8301526140688161402f565b9050919050565b7f4552433732313a207472616e736665722066726f6d20696e636f7272656374205f8201527f6f776e6572000000000000000000000000000000000000000000000000000000602082015250565b5f6140c960258361309c565b91506140d48261406f565b604082019050919050565b5f6020820190508181035f8301526140f6816140bd565b9050919050565b7f4552433732313a207472616e7366657220746f20746865207a65726f206164645f8201527f7265737300000000000000000000000000000000000000000000000000000000602082015250565b5f61415760248361309c565b9150614162826140fd565b604082019050919050565b5f6020820190508181035f8301526141848161414b565b9050919050565b7f4f776e61626c653a2063616c6c6572206973206e6f7420746865206f776e65725f82015250565b5f6141bf60208361309c565b91506141ca8261418b565b602082019050919050565b5f6020820190508181035f8301526141ec816141b3565b9050919050565b7f4552433732313a20617070726f766520746f2063616c6c6572000000000000005f82015250565b5f61422760198361309c565b9150614232826141f3565b602082019050919050565b5f6020820190508181035f8301526142548161421b565b9050919050565b7f4552433732313a206d696e7420746f20746865207a65726f20616464726573735f82015250565b5f61428f60208361309c565b915061429a8261425b565b602082019050919050565b5f6020820190508181035f8301526142bc81614283565b9050919050565b7f4552433732313a20746f6b656e20616c7265616479206d696e746564000000005f82015250565b5f6142f7601c8361309c565b9150614302826142c3565b602082019050919050565b5f6020820190508181035f830152614324816142eb565b9050919050565b5f819050815f5260205f209050919050565b5f6020601f8301049050919050565b5f82821b905092915050565b5f600883026143877fffffffffffffffffffffffffffffffffffffffffffffffffffffffffffffffff8261434c565b614391868361434c565b95508019841693508086168417925050509392505050565b5f6143c36143be6143b984612f49565b613c33565b612f49565b9050919050565b5f819050919050565b6143dc836143a9565b6143f06143e8826143ca565b848454614358565b825550505050565b5f90565b6144046143f8565b61440f8184846143d3565b505050565b5b81811015614432576144275f826143fc565b600181019050614415565b5050565b601f821115614477576144488161432b565b6144518461433d565b81016020851015614460578190505b61447461446c8561433d565b830182614414565b50505b505050565b5f82821c905092915050565b5f6144975f198460080261447c565b1980831691505092915050565b5f6144af8383614488565b9150826002028217905092915050565b6144c882612ebf565b67ffffffffffffffff8111156144e1576144e061340c565b5b6144eb82546137a7565b6144f6828285614436565b5f60209050601f831160018114614527575f8415614515578287015190505b61451f85826144a4565b865550614586565b601f1984166145358661432b565b5f5b8281101561455c57848901518255600182019150602085019450602081019050614537565b868310156145795784890151614575601f891682614488565b8355505b6001600288020188555050505b505050505050565b7f4552433732313a207472616e7366657220746f206e6f6e2045524337323152655f8201527f63656976657220696d706c656d656e7465720000000000000000000000000000602082015250565b5f6145e860328361309c565b91506145f38261458e565b604082019050919050565b5f6020820190508181035f830152614615816145dc565b9050919050565b7f4e487b71000000000000000000000000000000000000000000000000000000005f52601260045260245ffd5b7f455243373231456e756d657261626c653a20636f6e73656375746976652074725f8201527f616e7366657273206e6f7420737570706f727465640000000000000000000000602082015250565b5f6146a360358361309c565b91506146ae82614649565b604082019050919050565b5f6020820190508181035f8301526146d081614697565b9050919050565b5f81519050919050565b5f82825260208201905092915050565b5f6146fb826146d7565b61470581856146e1565b9350614715818560208601612ed9565b61471e81612f01565b840191505092915050565b5f60808201905061473c5f830187613159565b6147496020830186613159565b61475660408301856131bf565b818103606083015261476881846146f1565b905095945050505050565b5f8151905061478181612d89565b92915050565b5f6020828403121561479c5761479b612d56565b5b5f6147a984828501614773565b91505092915050565b5f6147bc82612f49565b91506147c783612f49565b92508282039050818111156147df576147de6137d7565b5b92915050565b7f4e487b71000000000000000000000000000000000000000000000000000000005f52603160045260245ffdfea2646970667358221220b9f9d6f4d5750aeaaaac8ed45aaaef1b0ad54ad4482825156e9c3f3588a98af964736f6c63430008150033",
  "immutableReferences": {},
  "source": "// SPDX-License-Identifier: MIT\r\npragma solidity ^0.8.0;\r\nimport \"@openzeppelin/contracts/token/ERC721/ERC721.sol\";\r\nimport \"@openzeppelin/contracts/token/ERC721/extensions/ERC721Enumerable.sol\";\r\nimport \"@openzeppelin/contracts/access/Ownable.sol\";\r\n\r\ncontract NFTPay is  ERC721Enumerable, Ownable {\r\n    struct TokenData {\r\n        string name;\r\n        string addressInfo;\r\n        uint256 number;\r\n        uint256 price;\r\n        address owner; // Add owner field\r\n    }\r\n\r\n    // Mapping from token ID to additional token data\r\n    mapping(uint256 => TokenData) private _tokenData;\r\n\r\n    constructor(string memory name, string memory symbol) ERC721(name, symbol) {}\r\n\r\n    event NFTMinted(\r\n        address indexed owner,\r\n        uint256 indexed tokenId,\r\n        string name,\r\n        string addressInfo,\r\n        uint256 number,\r\n        uint256 price\r\n    );\r\n\r\n    function mint(\r\n        address to,\r\n        uint256 tokenId,\r\n        string memory name,\r\n        string memory addressInfo,\r\n        uint256 number,\r\n        uint256 price\r\n    ) public onlyOwner {\r\n        _mint(to, tokenId);\r\n        _setTokenData(tokenId, name, addressInfo, number, price, to); // Set the owner as the seller\r\n        emit NFTMinted(to, tokenId, name, addressInfo, number, price);\r\n    }\r\n    function _setTokenData(\r\n        uint256 tokenId,\r\n        string memory name,\r\n        string memory addressInfo,\r\n        uint256 number,\r\n        uint256 price,\r\n        address owner\r\n    ) internal {\r\n        require(_exists(tokenId), \"Token does not exist\");\r\n        TokenData storage data = _tokenData[tokenId];\r\n        data.name = name;\r\n        data.addressInfo = addressInfo;\r\n        data.number = number;\r\n        data.price = price;\r\n        data.owner = owner; // Set the owner (seller)\r\n    }\r\n\r\n    function listNFT(uint256 tokenId, uint256 price) public {\r\n        require(price > 0, \"NFTMarket: price must be greater than 0\");\r\n        require(_isApprovedOrOwner(msg.sender, tokenId), \"NFTMarket: caller is not owner or approved\");\r\n        _tokenData[tokenId].price = price;\r\n        _tokenData[tokenId].owner = msg.sender; // Set the owner as the seller\r\n        emit NFTMinted(msg.sender, tokenId, \"\", \"\", 0, price);\r\n    }\r\n\r\n    function buyNFT(uint256 tokenId) public payable {\r\n        TokenData memory tokenData = _tokenData[tokenId];\r\n        require(tokenData.price > 0, \"NFTMarket: NFT not listed for sale\");\r\n        require(msg.value == tokenData.price, \"NFTMarket: incorrect price\");\r\n\r\n        address owner = tokenData.owner;\r\n        address buyer = msg.sender;\r\n\r\n        _transfer(owner, buyer, tokenId); // Transfer the NFT to the buyer\r\n        clearListing(tokenId); // Clear the listing\r\n        payable(owner).transfer(tokenData.price); // Send the payment to the owner (who is also the seller)\r\n        emit NFTMinted(buyer, tokenId, \"\", \"\", 0, tokenData.price);\r\n    }\r\n\r\n    function getTokenData(uint256 tokenId)\r\n        public\r\n        view\r\n        returns (\r\n            string memory name,\r\n            string memory addressInfo,\r\n            uint256 number,\r\n            uint256 price,\r\n            address owner\r\n        )\r\n    {\r\n        require(_exists(tokenId), \"Token does not exist\");\r\n        TokenData memory data = _tokenData[tokenId];\r\n        return (data.name, data.addressInfo, data.number, data.price, data.owner);\r\n    }\r\n\r\n    function clearListing(uint256 tokenId) private {\r\n        _tokenData[tokenId].price = 0;\r\n        _tokenData[tokenId].owner = address(0);\r\n    }\r\n    function getTotalIds() public view returns (uint256) {\r\n        return totalSupply();\r\n    }\r\n    function getTokensOwnedBy(address owner) public view returns (uint256[] memory) {\r\n        uint256 totalTokens = balanceOf(owner);\r\n        uint256[] memory ownedTokenIds = new uint256[](totalTokens);\r\n\r\n        for (uint256 i = 0; i < totalTokens; i++) {\r\n            ownedTokenIds[i] = tokenOfOwnerByIndex(owner, i);\r\n        }\r\n\r\n        return ownedTokenIds;\r\n    }\r\n    \r\n    function getTokenDataForOwner(address owner) public view returns (TokenData[] memory) {\r\n        uint256[] memory ownedTokenIds = getTokensOwnedBy(owner);\r\n        TokenData[] memory tokenDataList = new TokenData[](ownedTokenIds.length);\r\n\r\n        for (uint256 i = 0; i < ownedTokenIds.length; i++) {\r\n            uint256 tokenId = ownedTokenIds[i];\r\n            tokenDataList[i] = _tokenData[tokenId];\r\n        }\r\n\r\n        return tokenDataList;\r\n    }\r\n}\r\n\r\n",
  "sourcePath": "C:\\Users\\PC\\Desktop\\Summer2023\\stage\\projet\\nfttest9\\contracts\\NFTPay.sol",
  "compiler": {
    "name": "solc",
    "version": "0.8.21+commit.d9974bed.Emscripten.clang"
  },
  "schemaVersion": "3.4.16",
  "updatedAt": "2023-10-26T14:03:52.790Z",
  "networkType": "ethereum",
  "devdoc": {
    "events": {
      "Approval(address,address,uint256)": {
        "details": "Emitted when `owner` enables `approved` to manage the `tokenId` token."
      },
      "ApprovalForAll(address,address,bool)": {
        "details": "Emitted when `owner` enables or disables (`approved`) `operator` to manage all of its assets."
      },
      "Transfer(address,address,uint256)": {
        "details": "Emitted when `tokenId` token is transferred from `from` to `to`."
      }
    },
    "kind": "dev",
    "methods": {
      "approve(address,uint256)": {
        "details": "See {IERC721-approve}."
      },
      "balanceOf(address)": {
        "details": "See {IERC721-balanceOf}."
      },
      "getApproved(uint256)": {
        "details": "See {IERC721-getApproved}."
      },
      "isApprovedForAll(address,address)": {
        "details": "See {IERC721-isApprovedForAll}."
      },
      "name()": {
        "details": "See {IERC721Metadata-name}."
      },
      "owner()": {
        "details": "Returns the address of the current owner."
      },
      "ownerOf(uint256)": {
        "details": "See {IERC721-ownerOf}."
      },
      "renounceOwnership()": {
        "details": "Leaves the contract without owner. It will not be possible to call `onlyOwner` functions. Can only be called by the current owner. NOTE: Renouncing ownership will leave the contract without an owner, thereby disabling any functionality that is only available to the owner."
      },
      "safeTransferFrom(address,address,uint256)": {
        "details": "See {IERC721-safeTransferFrom}."
      },
      "safeTransferFrom(address,address,uint256,bytes)": {
        "details": "See {IERC721-safeTransferFrom}."
      },
      "setApprovalForAll(address,bool)": {
        "details": "See {IERC721-setApprovalForAll}."
      },
      "supportsInterface(bytes4)": {
        "details": "See {IERC165-supportsInterface}."
      },
      "symbol()": {
        "details": "See {IERC721Metadata-symbol}."
      },
      "tokenByIndex(uint256)": {
        "details": "See {IERC721Enumerable-tokenByIndex}."
      },
      "tokenOfOwnerByIndex(address,uint256)": {
        "details": "See {IERC721Enumerable-tokenOfOwnerByIndex}."
      },
      "tokenURI(uint256)": {
        "details": "See {IERC721Metadata-tokenURI}."
      },
      "totalSupply()": {
        "details": "See {IERC721Enumerable-totalSupply}."
      },
      "transferFrom(address,address,uint256)": {
        "details": "See {IERC721-transferFrom}."
      },
      "transferOwnership(address)": {
        "details": "Transfers ownership of the contract to a new account (`newOwner`). Can only be called by the current owner."
      }
    },
    "version": 1
  },
  "userdoc": {
    "kind": "user",
    "methods": {},
    "version": 1
  }
}